{
	"contracts/Ballot.sol": {
		"Ballot": {
			"abi": [
				{
					"inputs": [
						{
							"internalType": "bytes32[]",
							"name": "proposalsNames",
							"type": "bytes32[]"
						}
					],
					"stateMutability": "nonpayable",
					"type": "constructor"
				},
				{
					"inputs": [],
					"name": "chairperson",
					"outputs": [
						{
							"internalType": "address",
							"name": "",
							"type": "address"
						}
					],
					"stateMutability": "view",
					"type": "function"
				},
				{
					"inputs": [
						{
							"internalType": "address",
							"name": "to",
							"type": "address"
						}
					],
					"name": "delegate",
					"outputs": [],
					"stateMutability": "nonpayable",
					"type": "function"
				},
				{
					"inputs": [
						{
							"internalType": "address",
							"name": "voter",
							"type": "address"
						}
					],
					"name": "giveRightToVoter",
					"outputs": [],
					"stateMutability": "nonpayable",
					"type": "function"
				},
				{
					"inputs": [
						{
							"internalType": "uint256",
							"name": "",
							"type": "uint256"
						}
					],
					"name": "proposals",
					"outputs": [
						{
							"internalType": "bytes32",
							"name": "name",
							"type": "bytes32"
						},
						{
							"internalType": "uint256",
							"name": "num",
							"type": "uint256"
						}
					],
					"stateMutability": "view",
					"type": "function"
				},
				{
					"inputs": [
						{
							"internalType": "uint256",
							"name": "proposal",
							"type": "uint256"
						}
					],
					"name": "vote",
					"outputs": [],
					"stateMutability": "nonpayable",
					"type": "function"
				},
				{
					"inputs": [],
					"name": "winnerName",
					"outputs": [
						{
							"internalType": "bytes32",
							"name": "proposalName_",
							"type": "bytes32"
						}
					],
					"stateMutability": "view",
					"type": "function"
				},
				{
					"inputs": [],
					"name": "winningProposal",
					"outputs": [
						{
							"internalType": "uint256",
							"name": "winningProposal_",
							"type": "uint256"
						}
					],
					"stateMutability": "view",
					"type": "function"
				}
			],
			"devdoc": {
				"kind": "dev",
				"methods": {},
				"version": 1
			},
			"evm": {
				"assembly": "    /* \"contracts/Ballot.sol\":69:2514  contract Ballot{... */\n  mstore(0x40, 0x80)\n    /* \"contracts/Ballot.sol\":415:740  constructor(bytes32[] memory proposalsNames){... */\n  callvalue\n  dup1\n  iszero\n  tag_1\n  jumpi\n  0x00\n  dup1\n  revert\ntag_1:\n  pop\n  mload(0x40)\n  sub(codesize, bytecodeSize)\n  dup1\n  bytecodeSize\n  dup4\n  codecopy\n  dup2\n  dup2\n  add\n  0x40\n  mstore\n  dup2\n  add\n  swap1\n  tag_2\n  swap2\n  swap1\n  tag_3\n  jump\t// in\ntag_2:\n    /* \"contracts/Ballot.sol\":484:494  msg.sender */\n  caller\n    /* \"contracts/Ballot.sol\":470:481  chairperson */\n  0x00\n  dup1\n    /* \"contracts/Ballot.sol\":470:494  chairperson = msg.sender */\n  0x0100\n  exp\n  dup2\n  sload\n  dup2\n  0xffffffffffffffffffffffffffffffffffffffff\n  mul\n  not\n  and\n  swap1\n  dup4\n  0xffffffffffffffffffffffffffffffffffffffff\n  and\n  mul\n  or\n  swap1\n  sstore\n  pop\n    /* \"contracts/Ballot.sol\":534:535  1 */\n  0x01\n    /* \"contracts/Ballot.sol\":505:511  voters */\n  dup1\n    /* \"contracts/Ballot.sol\":505:524  voters[chairperson] */\n  0x00\n    /* \"contracts/Ballot.sol\":512:523  chairperson */\n  dup1\n  0x00\n  swap1\n  sload\n  swap1\n  0x0100\n  exp\n  swap1\n  div\n  0xffffffffffffffffffffffffffffffffffffffff\n  and\n    /* \"contracts/Ballot.sol\":505:524  voters[chairperson] */\n  0xffffffffffffffffffffffffffffffffffffffff\n  and\n  0xffffffffffffffffffffffffffffffffffffffff\n  and\n  dup2\n  mstore\n  0x20\n  add\n  swap1\n  dup2\n  mstore\n  0x20\n  add\n  0x00\n  keccak256\n    /* \"contracts/Ballot.sol\":505:531  voters[chairperson].weight */\n  0x00\n  add\n    /* \"contracts/Ballot.sol\":505:535  voters[chairperson].weight = 1 */\n  dup2\n  swap1\n  sstore\n  pop\n    /* \"contracts/Ballot.sol\":552:558  uint i */\n  0x00\n    /* \"contracts/Ballot.sol\":548:733  for(uint i  = 0; i < proposalsNames.length; i++){... */\ntag_6:\n    /* \"contracts/Ballot.sol\":569:583  proposalsNames */\n  dup2\n    /* \"contracts/Ballot.sol\":569:590  proposalsNames.length */\n  mload\n    /* \"contracts/Ballot.sol\":565:566  i */\n  dup2\n    /* \"contracts/Ballot.sol\":565:590  i < proposalsNames.length */\n  lt\n    /* \"contracts/Ballot.sol\":548:733  for(uint i  = 0; i < proposalsNames.length; i++){... */\n  iszero\n  tag_7\n  jumpi\n    /* \"contracts/Ballot.sol\":611:620  proposals */\n  0x02\n    /* \"contracts/Ballot.sol\":626:720  Proposal({... */\n  mload(0x40)\n  dup1\n  0x40\n  add\n  0x40\n  mstore\n  dup1\n    /* \"contracts/Ballot.sol\":661:675  proposalsNames */\n  dup5\n    /* \"contracts/Ballot.sol\":676:677  i */\n  dup5\n    /* \"contracts/Ballot.sol\":661:678  proposalsNames[i] */\n  dup2\n  mload\n  dup2\n  lt\n  tag_9\n  jumpi\n  tag_10\n  tag_11\n  jump\t// in\ntag_10:\ntag_9:\n  0x20\n  mul\n  0x20\n  add\n  add\n  mload\n    /* \"contracts/Ballot.sol\":626:720  Proposal({... */\n  dup2\n  mstore\n  0x20\n  add\n    /* \"contracts/Ballot.sol\":703:704  0 */\n  0x00\n    /* \"contracts/Ballot.sol\":626:720  Proposal({... */\n  dup2\n  mstore\n  pop\n    /* \"contracts/Ballot.sol\":611:721  proposals.push(Proposal({... */\n  swap1\n  dup1\n  0x01\n  dup2\n  sload\n  add\n  dup1\n  dup3\n  sstore\n  dup1\n  swap2\n  pop\n  pop\n  0x01\n  swap1\n  sub\n  swap1\n  0x00\n  mstore\n  keccak256(0x00, 0x20)\n  swap1\n  0x02\n  mul\n  add\n  0x00\n  swap1\n  swap2\n  swap1\n  swap2\n  swap1\n  swap2\n  pop\n  0x00\n  dup3\n  add\n  mload\n  dup2\n  0x00\n  add\n  sstore\n  0x20\n  dup3\n  add\n  mload\n  dup2\n  0x01\n  add\n  sstore\n  pop\n  pop\n    /* \"contracts/Ballot.sol\":592:595  i++ */\n  dup1\n  dup1\n  0x01\n  add\n  swap2\n  pop\n  pop\n    /* \"contracts/Ballot.sol\":548:733  for(uint i  = 0; i < proposalsNames.length; i++){... */\n  jump(tag_6)\ntag_7:\n  pop\n    /* \"contracts/Ballot.sol\":415:740  constructor(bytes32[] memory proposalsNames){... */\n  pop\n    /* \"contracts/Ballot.sol\":69:2514  contract Ballot{... */\n  jump(tag_13)\n    /* \"#utility.yul\":7:82   */\ntag_14:\n    /* \"#utility.yul\":40:46   */\n  0x00\n    /* \"#utility.yul\":73:75   */\n  0x40\n    /* \"#utility.yul\":67:76   */\n  mload\n    /* \"#utility.yul\":57:76   */\n  swap1\n  pop\n    /* \"#utility.yul\":7:82   */\n  swap1\n  jump\t// out\n    /* \"#utility.yul\":88:205   */\ntag_15:\n    /* \"#utility.yul\":197:198   */\n  0x00\n    /* \"#utility.yul\":194:195   */\n  dup1\n    /* \"#utility.yul\":187:199   */\n  revert\n    /* \"#utility.yul\":211:328   */\ntag_16:\n    /* \"#utility.yul\":320:321   */\n  0x00\n    /* \"#utility.yul\":317:318   */\n  dup1\n    /* \"#utility.yul\":310:322   */\n  revert\n    /* \"#utility.yul\":334:451   */\ntag_17:\n    /* \"#utility.yul\":443:444   */\n  0x00\n    /* \"#utility.yul\":440:441   */\n  dup1\n    /* \"#utility.yul\":433:445   */\n  revert\n    /* \"#utility.yul\":457:559   */\ntag_18:\n    /* \"#utility.yul\":498:504   */\n  0x00\n    /* \"#utility.yul\":549:551   */\n  0x1f\n    /* \"#utility.yul\":545:552   */\n  not\n    /* \"#utility.yul\":540:542   */\n  0x1f\n    /* \"#utility.yul\":533:538   */\n  dup4\n    /* \"#utility.yul\":529:543   */\n  add\n    /* \"#utility.yul\":525:553   */\n  and\n    /* \"#utility.yul\":515:553   */\n  swap1\n  pop\n    /* \"#utility.yul\":457:559   */\n  swap2\n  swap1\n  pop\n  jump\t// out\n    /* \"#utility.yul\":565:745   */\ntag_19:\n    /* \"#utility.yul\":613:690   */\n  0x4e487b7100000000000000000000000000000000000000000000000000000000\n    /* \"#utility.yul\":610:611   */\n  0x00\n    /* \"#utility.yul\":603:691   */\n  mstore\n    /* \"#utility.yul\":710:714   */\n  0x41\n    /* \"#utility.yul\":707:708   */\n  0x04\n    /* \"#utility.yul\":700:715   */\n  mstore\n    /* \"#utility.yul\":734:738   */\n  0x24\n    /* \"#utility.yul\":731:732   */\n  0x00\n    /* \"#utility.yul\":724:739   */\n  revert\n    /* \"#utility.yul\":751:1032   */\ntag_20:\n    /* \"#utility.yul\":834:861   */\n  tag_37\n    /* \"#utility.yul\":856:860   */\n  dup3\n    /* \"#utility.yul\":834:861   */\n  tag_18\n  jump\t// in\ntag_37:\n    /* \"#utility.yul\":826:832   */\n  dup2\n    /* \"#utility.yul\":822:862   */\n  add\n    /* \"#utility.yul\":964:970   */\n  dup2\n    /* \"#utility.yul\":952:962   */\n  dup2\n    /* \"#utility.yul\":949:971   */\n  lt\n    /* \"#utility.yul\":928:946   */\n  0xffffffffffffffff\n    /* \"#utility.yul\":916:926   */\n  dup3\n    /* \"#utility.yul\":913:947   */\n  gt\n    /* \"#utility.yul\":910:972   */\n  or\n    /* \"#utility.yul\":907:995   */\n  iszero\n  tag_38\n  jumpi\n    /* \"#utility.yul\":975:993   */\n  tag_39\n  tag_19\n  jump\t// in\ntag_39:\n    /* \"#utility.yul\":907:995   */\ntag_38:\n    /* \"#utility.yul\":1015:1025   */\n  dup1\n    /* \"#utility.yul\":1011:1013   */\n  0x40\n    /* \"#utility.yul\":1004:1026   */\n  mstore\n    /* \"#utility.yul\":794:1032   */\n  pop\n    /* \"#utility.yul\":751:1032   */\n  pop\n  pop\n  jump\t// out\n    /* \"#utility.yul\":1038:1167   */\ntag_21:\n    /* \"#utility.yul\":1072:1078   */\n  0x00\n    /* \"#utility.yul\":1099:1119   */\n  tag_41\n  tag_14\n  jump\t// in\ntag_41:\n    /* \"#utility.yul\":1089:1119   */\n  swap1\n  pop\n    /* \"#utility.yul\":1128:1161   */\n  tag_42\n    /* \"#utility.yul\":1156:1160   */\n  dup3\n    /* \"#utility.yul\":1148:1154   */\n  dup3\n    /* \"#utility.yul\":1128:1161   */\n  tag_20\n  jump\t// in\ntag_42:\n    /* \"#utility.yul\":1038:1167   */\n  swap2\n  swap1\n  pop\n  jump\t// out\n    /* \"#utility.yul\":1173:1484   */\ntag_22:\n    /* \"#utility.yul\":1250:1254   */\n  0x00\n    /* \"#utility.yul\":1340:1358   */\n  0xffffffffffffffff\n    /* \"#utility.yul\":1332:1338   */\n  dup3\n    /* \"#utility.yul\":1329:1359   */\n  gt\n    /* \"#utility.yul\":1326:1382   */\n  iszero\n  tag_44\n  jumpi\n    /* \"#utility.yul\":1362:1380   */\n  tag_45\n  tag_19\n  jump\t// in\ntag_45:\n    /* \"#utility.yul\":1326:1382   */\ntag_44:\n    /* \"#utility.yul\":1412:1416   */\n  0x20\n    /* \"#utility.yul\":1404:1410   */\n  dup3\n    /* \"#utility.yul\":1400:1417   */\n  mul\n    /* \"#utility.yul\":1392:1417   */\n  swap1\n  pop\n    /* \"#utility.yul\":1472:1476   */\n  0x20\n    /* \"#utility.yul\":1466:1470   */\n  dup2\n    /* \"#utility.yul\":1462:1477   */\n  add\n    /* \"#utility.yul\":1454:1477   */\n  swap1\n  pop\n    /* \"#utility.yul\":1173:1484   */\n  swap2\n  swap1\n  pop\n  jump\t// out\n    /* \"#utility.yul\":1490:1607   */\ntag_23:\n    /* \"#utility.yul\":1599:1600   */\n  0x00\n    /* \"#utility.yul\":1596:1597   */\n  dup1\n    /* \"#utility.yul\":1589:1601   */\n  revert\n    /* \"#utility.yul\":1613:1690   */\ntag_24:\n    /* \"#utility.yul\":1650:1657   */\n  0x00\n    /* \"#utility.yul\":1679:1684   */\n  dup2\n    /* \"#utility.yul\":1668:1684   */\n  swap1\n  pop\n    /* \"#utility.yul\":1613:1690   */\n  swap2\n  swap1\n  pop\n  jump\t// out\n    /* \"#utility.yul\":1696:1818   */\ntag_25:\n    /* \"#utility.yul\":1769:1793   */\n  tag_49\n    /* \"#utility.yul\":1787:1792   */\n  dup2\n    /* \"#utility.yul\":1769:1793   */\n  tag_24\n  jump\t// in\ntag_49:\n    /* \"#utility.yul\":1762:1767   */\n  dup2\n    /* \"#utility.yul\":1759:1794   */\n  eq\n    /* \"#utility.yul\":1749:1812   */\n  tag_50\n  jumpi\n    /* \"#utility.yul\":1808:1809   */\n  0x00\n    /* \"#utility.yul\":1805:1806   */\n  dup1\n    /* \"#utility.yul\":1798:1810   */\n  revert\n    /* \"#utility.yul\":1749:1812   */\ntag_50:\n    /* \"#utility.yul\":1696:1818   */\n  pop\n  jump\t// out\n    /* \"#utility.yul\":1824:1967   */\ntag_26:\n    /* \"#utility.yul\":1881:1886   */\n  0x00\n    /* \"#utility.yul\":1912:1918   */\n  dup2\n    /* \"#utility.yul\":1906:1919   */\n  mload\n    /* \"#utility.yul\":1897:1919   */\n  swap1\n  pop\n    /* \"#utility.yul\":1928:1961   */\n  tag_52\n    /* \"#utility.yul\":1955:1960   */\n  dup2\n    /* \"#utility.yul\":1928:1961   */\n  tag_25\n  jump\t// in\ntag_52:\n    /* \"#utility.yul\":1824:1967   */\n  swap3\n  swap2\n  pop\n  pop\n  jump\t// out\n    /* \"#utility.yul\":1990:2722   */\ntag_27:\n    /* \"#utility.yul\":2097:2102   */\n  0x00\n    /* \"#utility.yul\":2122:2203   */\n  tag_54\n    /* \"#utility.yul\":2138:2202   */\n  tag_55\n    /* \"#utility.yul\":2195:2201   */\n  dup5\n    /* \"#utility.yul\":2138:2202   */\n  tag_22\n  jump\t// in\ntag_55:\n    /* \"#utility.yul\":2122:2203   */\n  tag_21\n  jump\t// in\ntag_54:\n    /* \"#utility.yul\":2113:2203   */\n  swap1\n  pop\n    /* \"#utility.yul\":2223:2228   */\n  dup1\n    /* \"#utility.yul\":2252:2258   */\n  dup4\n    /* \"#utility.yul\":2245:2250   */\n  dup3\n    /* \"#utility.yul\":2238:2259   */\n  mstore\n    /* \"#utility.yul\":2286:2290   */\n  0x20\n    /* \"#utility.yul\":2279:2284   */\n  dup3\n    /* \"#utility.yul\":2275:2291   */\n  add\n    /* \"#utility.yul\":2268:2291   */\n  swap1\n  pop\n    /* \"#utility.yul\":2339:2343   */\n  0x20\n    /* \"#utility.yul\":2331:2337   */\n  dup5\n    /* \"#utility.yul\":2327:2344   */\n  mul\n    /* \"#utility.yul\":2319:2325   */\n  dup4\n    /* \"#utility.yul\":2315:2345   */\n  add\n    /* \"#utility.yul\":2368:2371   */\n  dup6\n    /* \"#utility.yul\":2360:2366   */\n  dup2\n    /* \"#utility.yul\":2357:2372   */\n  gt\n    /* \"#utility.yul\":2354:2476   */\n  iszero\n  tag_56\n  jumpi\n    /* \"#utility.yul\":2387:2466   */\n  tag_57\n  tag_23\n  jump\t// in\ntag_57:\n    /* \"#utility.yul\":2354:2476   */\ntag_56:\n    /* \"#utility.yul\":2502:2508   */\n  dup4\n    /* \"#utility.yul\":2485:2716   */\ntag_58:\n    /* \"#utility.yul\":2519:2525   */\n  dup2\n    /* \"#utility.yul\":2514:2517   */\n  dup2\n    /* \"#utility.yul\":2511:2526   */\n  lt\n    /* \"#utility.yul\":2485:2716   */\n  iszero\n  tag_60\n  jumpi\n    /* \"#utility.yul\":2594:2597   */\n  dup1\n    /* \"#utility.yul\":2623:2671   */\n  tag_61\n    /* \"#utility.yul\":2667:2670   */\n  dup9\n    /* \"#utility.yul\":2655:2665   */\n  dup3\n    /* \"#utility.yul\":2623:2671   */\n  tag_26\n  jump\t// in\ntag_61:\n    /* \"#utility.yul\":2618:2621   */\n  dup5\n    /* \"#utility.yul\":2611:2672   */\n  mstore\n    /* \"#utility.yul\":2701:2705   */\n  0x20\n    /* \"#utility.yul\":2696:2699   */\n  dup5\n    /* \"#utility.yul\":2692:2706   */\n  add\n    /* \"#utility.yul\":2685:2706   */\n  swap4\n  pop\n    /* \"#utility.yul\":2561:2716   */\n  pop\n    /* \"#utility.yul\":2545:2549   */\n  0x20\n    /* \"#utility.yul\":2540:2543   */\n  dup2\n    /* \"#utility.yul\":2536:2550   */\n  add\n    /* \"#utility.yul\":2529:2550   */\n  swap1\n  pop\n    /* \"#utility.yul\":2485:2716   */\n  jump(tag_58)\ntag_60:\n    /* \"#utility.yul\":2489:2510   */\n  pop\n    /* \"#utility.yul\":2103:2722   */\n  pop\n  pop\n    /* \"#utility.yul\":1990:2722   */\n  swap4\n  swap3\n  pop\n  pop\n  pop\n  jump\t// out\n    /* \"#utility.yul\":2745:3130   */\ntag_28:\n    /* \"#utility.yul\":2827:2832   */\n  0x00\n    /* \"#utility.yul\":2876:2879   */\n  dup3\n    /* \"#utility.yul\":2869:2873   */\n  0x1f\n    /* \"#utility.yul\":2861:2867   */\n  dup4\n    /* \"#utility.yul\":2857:2874   */\n  add\n    /* \"#utility.yul\":2853:2880   */\n  slt\n    /* \"#utility.yul\":2843:2965   */\n  tag_63\n  jumpi\n    /* \"#utility.yul\":2884:2963   */\n  tag_64\n  tag_17\n  jump\t// in\ntag_64:\n    /* \"#utility.yul\":2843:2965   */\ntag_63:\n    /* \"#utility.yul\":2994:3000   */\n  dup2\n    /* \"#utility.yul\":2988:3001   */\n  mload\n    /* \"#utility.yul\":3019:3124   */\n  tag_65\n    /* \"#utility.yul\":3120:3123   */\n  dup5\n    /* \"#utility.yul\":3112:3118   */\n  dup3\n    /* \"#utility.yul\":3105:3109   */\n  0x20\n    /* \"#utility.yul\":3097:3103   */\n  dup7\n    /* \"#utility.yul\":3093:3110   */\n  add\n    /* \"#utility.yul\":3019:3124   */\n  tag_27\n  jump\t// in\ntag_65:\n    /* \"#utility.yul\":3010:3124   */\n  swap2\n  pop\n    /* \"#utility.yul\":2833:3130   */\n  pop\n    /* \"#utility.yul\":2745:3130   */\n  swap3\n  swap2\n  pop\n  pop\n  jump\t// out\n    /* \"#utility.yul\":3136:3690   */\ntag_3:\n    /* \"#utility.yul\":3231:3237   */\n  0x00\n    /* \"#utility.yul\":3280:3282   */\n  0x20\n    /* \"#utility.yul\":3268:3277   */\n  dup3\n    /* \"#utility.yul\":3259:3266   */\n  dup5\n    /* \"#utility.yul\":3255:3278   */\n  sub\n    /* \"#utility.yul\":3251:3283   */\n  slt\n    /* \"#utility.yul\":3248:3367   */\n  iszero\n  tag_67\n  jumpi\n    /* \"#utility.yul\":3286:3365   */\n  tag_68\n  tag_15\n  jump\t// in\ntag_68:\n    /* \"#utility.yul\":3248:3367   */\ntag_67:\n    /* \"#utility.yul\":3427:3428   */\n  0x00\n    /* \"#utility.yul\":3416:3425   */\n  dup3\n    /* \"#utility.yul\":3412:3429   */\n  add\n    /* \"#utility.yul\":3406:3430   */\n  mload\n    /* \"#utility.yul\":3457:3475   */\n  0xffffffffffffffff\n    /* \"#utility.yul\":3449:3455   */\n  dup2\n    /* \"#utility.yul\":3446:3476   */\n  gt\n    /* \"#utility.yul\":3443:3560   */\n  iszero\n  tag_69\n  jumpi\n    /* \"#utility.yul\":3479:3558   */\n  tag_70\n  tag_16\n  jump\t// in\ntag_70:\n    /* \"#utility.yul\":3443:3560   */\ntag_69:\n    /* \"#utility.yul\":3584:3673   */\n  tag_71\n    /* \"#utility.yul\":3665:3672   */\n  dup5\n    /* \"#utility.yul\":3656:3662   */\n  dup3\n    /* \"#utility.yul\":3645:3654   */\n  dup6\n    /* \"#utility.yul\":3641:3663   */\n  add\n    /* \"#utility.yul\":3584:3673   */\n  tag_28\n  jump\t// in\ntag_71:\n    /* \"#utility.yul\":3574:3673   */\n  swap2\n  pop\n    /* \"#utility.yul\":3377:3683   */\n  pop\n    /* \"#utility.yul\":3136:3690   */\n  swap3\n  swap2\n  pop\n  pop\n  jump\t// out\n    /* \"#utility.yul\":3696:3876   */\ntag_11:\n    /* \"#utility.yul\":3744:3821   */\n  0x4e487b7100000000000000000000000000000000000000000000000000000000\n    /* \"#utility.yul\":3741:3742   */\n  0x00\n    /* \"#utility.yul\":3734:3822   */\n  mstore\n    /* \"#utility.yul\":3841:3845   */\n  0x32\n    /* \"#utility.yul\":3838:3839   */\n  0x04\n    /* \"#utility.yul\":3831:3846   */\n  mstore\n    /* \"#utility.yul\":3865:3869   */\n  0x24\n    /* \"#utility.yul\":3862:3863   */\n  0x00\n    /* \"#utility.yul\":3855:3870   */\n  revert\n    /* \"contracts/Ballot.sol\":69:2514  contract Ballot{... */\ntag_13:\n  dataSize(sub_0)\n  dup1\n  dataOffset(sub_0)\n  0x00\n  codecopy\n  0x00\n  return\nstop\n\nsub_0: assembly {\n        /* \"contracts/Ballot.sol\":69:2514  contract Ballot{... */\n      mstore(0x40, 0x80)\n      callvalue\n      dup1\n      iszero\n      tag_1\n      jumpi\n      0x00\n      dup1\n      revert\n    tag_1:\n      pop\n      jumpi(tag_2, lt(calldatasize, 0x04))\n      shr(0xe0, calldataload(0x00))\n      dup1\n      0x2e4176cf\n      gt\n      tag_10\n      jumpi\n      dup1\n      0x2e4176cf\n      eq\n      tag_6\n      jumpi\n      dup1\n      0x5c19a95c\n      eq\n      tag_7\n      jumpi\n      dup1\n      0x609ff1bd\n      eq\n      tag_8\n      jumpi\n      dup1\n      0xe2ba53f0\n      eq\n      tag_9\n      jumpi\n      jump(tag_2)\n    tag_10:\n      dup1\n      0x0121b93f\n      eq\n      tag_3\n      jumpi\n      dup1\n      0x013cf08b\n      eq\n      tag_4\n      jumpi\n      dup1\n      0x1eea2fb9\n      eq\n      tag_5\n      jumpi\n    tag_2:\n      0x00\n      dup1\n      revert\n        /* \"contracts/Ballot.sol\":1718:2012  function vote(uint proposal) external {... */\n    tag_3:\n      tag_11\n      0x04\n      dup1\n      calldatasize\n      sub\n      dup2\n      add\n      swap1\n      tag_12\n      swap2\n      swap1\n      tag_13\n      jump\t// in\n    tag_12:\n      tag_14\n      jump\t// in\n    tag_11:\n      stop\n        /* \"contracts/Ballot.sol\":379:406  Proposal[] public proposals */\n    tag_4:\n      tag_15\n      0x04\n      dup1\n      calldatasize\n      sub\n      dup2\n      add\n      swap1\n      tag_16\n      swap2\n      swap1\n      tag_13\n      jump\t// in\n    tag_16:\n      tag_17\n      jump\t// in\n    tag_15:\n      mload(0x40)\n      tag_18\n      swap3\n      swap2\n      swap1\n      tag_19\n      jump\t// in\n    tag_18:\n      mload(0x40)\n      dup1\n      swap2\n      sub\n      swap1\n      return\n        /* \"contracts/Ballot.sol\":748:1016  function giveRightToVoter(address voter) external {... */\n    tag_5:\n      tag_20\n      0x04\n      dup1\n      calldatasize\n      sub\n      dup2\n      add\n      swap1\n      tag_21\n      swap2\n      swap1\n      tag_22\n      jump\t// in\n    tag_21:\n      tag_23\n      jump\t// in\n    tag_20:\n      stop\n        /* \"contracts/Ballot.sol\":302:328  address public chairperson */\n    tag_6:\n      tag_24\n      tag_25\n      jump\t// in\n    tag_24:\n      mload(0x40)\n      tag_26\n      swap2\n      swap1\n      tag_27\n      jump\t// in\n    tag_26:\n      mload(0x40)\n      dup1\n      swap2\n      sub\n      swap1\n      return\n        /* \"contracts/Ballot.sol\":1024:1710  function delegate(address to) external {... */\n    tag_7:\n      tag_28\n      0x04\n      dup1\n      calldatasize\n      sub\n      dup2\n      add\n      swap1\n      tag_29\n      swap2\n      swap1\n      tag_22\n      jump\t// in\n    tag_29:\n      tag_30\n      jump\t// in\n    tag_28:\n      stop\n        /* \"contracts/Ballot.sol\":2033:2366  function winningProposal() public view returns(uint winningProposal_){... */\n    tag_8:\n      tag_31\n      tag_32\n      jump\t// in\n    tag_31:\n      mload(0x40)\n      tag_33\n      swap2\n      swap1\n      tag_34\n      jump\t// in\n    tag_33:\n      mload(0x40)\n      dup1\n      swap2\n      sub\n      swap1\n      return\n        /* \"contracts/Ballot.sol\":2375:2509  function winnerName() external view returns(bytes32 proposalName_){... */\n    tag_9:\n      tag_35\n      tag_36\n      jump\t// in\n    tag_35:\n      mload(0x40)\n      tag_37\n      swap2\n      swap1\n      tag_38\n      jump\t// in\n    tag_37:\n      mload(0x40)\n      dup1\n      swap2\n      sub\n      swap1\n      return\n        /* \"contracts/Ballot.sol\":1718:2012  function vote(uint proposal) external {... */\n    tag_14:\n        /* \"contracts/Ballot.sol\":1767:1787  Voter storage sender */\n      0x00\n        /* \"contracts/Ballot.sol\":1790:1796  voters */\n      0x01\n        /* \"contracts/Ballot.sol\":1790:1808  voters[msg.sender] */\n      0x00\n        /* \"contracts/Ballot.sol\":1797:1807  msg.sender */\n      caller\n        /* \"contracts/Ballot.sol\":1790:1808  voters[msg.sender] */\n      0xffffffffffffffffffffffffffffffffffffffff\n      and\n      0xffffffffffffffffffffffffffffffffffffffff\n      and\n      dup2\n      mstore\n      0x20\n      add\n      swap1\n      dup2\n      mstore\n      0x20\n      add\n      0x00\n      keccak256\n        /* \"contracts/Ballot.sol\":1767:1808  Voter storage sender = voters[msg.sender] */\n      swap1\n      pop\n        /* \"contracts/Ballot.sol\":1828:1834  sender */\n      dup1\n        /* \"contracts/Ballot.sol\":1828:1840  sender.voted */\n      0x01\n      add\n      0x14\n      swap1\n      sload\n      swap1\n      0x0100\n      exp\n      swap1\n      div\n      0xff\n      and\n        /* \"contracts/Ballot.sol\":1827:1840  !sender.voted */\n      iszero\n        /* \"contracts/Ballot.sol\":1819:1841  require(!sender.voted) */\n      tag_40\n      jumpi\n      0x00\n      dup1\n      revert\n    tag_40:\n        /* \"contracts/Ballot.sol\":1877:1878  1 */\n      0x01\n        /* \"contracts/Ballot.sol\":1860:1866  sender */\n      dup2\n        /* \"contracts/Ballot.sol\":1860:1873  sender.weight */\n      0x00\n      add\n      sload\n        /* \"contracts/Ballot.sol\":1860:1878  sender.weight >= 1 */\n      lt\n      iszero\n        /* \"contracts/Ballot.sol\":1852:1879  require(sender.weight >= 1) */\n      tag_41\n      jumpi\n      0x00\n      dup1\n      revert\n    tag_41:\n        /* \"contracts/Ballot.sol\":1905:1909  true */\n      0x01\n        /* \"contracts/Ballot.sol\":1890:1896  sender */\n      dup2\n        /* \"contracts/Ballot.sol\":1890:1902  sender.voted */\n      0x01\n      add\n      0x14\n        /* \"contracts/Ballot.sol\":1890:1909  sender.voted = true */\n      0x0100\n      exp\n      dup2\n      sload\n      dup2\n      0xff\n      mul\n      not\n      and\n      swap1\n      dup4\n      iszero\n      iszero\n      mul\n      or\n      swap1\n      sstore\n      pop\n        /* \"contracts/Ballot.sol\":1935:1943  proposal */\n      dup2\n        /* \"contracts/Ballot.sol\":1920:1926  sender */\n      dup2\n        /* \"contracts/Ballot.sol\":1920:1932  sender.index */\n      0x02\n      add\n        /* \"contracts/Ballot.sol\":1920:1943  sender.index = proposal */\n      dup2\n      swap1\n      sstore\n      pop\n        /* \"contracts/Ballot.sol\":1983:1989  sender */\n      dup1\n        /* \"contracts/Ballot.sol\":1983:1996  sender.weight */\n      0x00\n      add\n      sload\n        /* \"contracts/Ballot.sol\":1956:1965  proposals */\n      0x02\n        /* \"contracts/Ballot.sol\":1966:1974  proposal */\n      dup4\n        /* \"contracts/Ballot.sol\":1956:1975  proposals[proposal] */\n      dup2\n      sload\n      dup2\n      lt\n      tag_42\n      jumpi\n      tag_43\n      tag_44\n      jump\t// in\n    tag_43:\n    tag_42:\n      swap1\n      0x00\n      mstore\n      keccak256(0x00, 0x20)\n      swap1\n      0x02\n      mul\n      add\n        /* \"contracts/Ballot.sol\":1956:1979  proposals[proposal].num */\n      0x01\n      add\n      0x00\n        /* \"contracts/Ballot.sol\":1956:1996  proposals[proposal].num += sender.weight */\n      dup3\n      dup3\n      sload\n      tag_46\n      swap2\n      swap1\n      tag_47\n      jump\t// in\n    tag_46:\n      swap3\n      pop\n      pop\n      dup2\n      swap1\n      sstore\n      pop\n        /* \"contracts/Ballot.sol\":1756:2012  {... */\n      pop\n        /* \"contracts/Ballot.sol\":1718:2012  function vote(uint proposal) external {... */\n      pop\n      jump\t// out\n        /* \"contracts/Ballot.sol\":379:406  Proposal[] public proposals */\n    tag_17:\n      0x02\n      dup2\n      dup2\n      sload\n      dup2\n      lt\n      tag_48\n      jumpi\n      0x00\n      dup1\n      revert\n    tag_48:\n      swap1\n      0x00\n      mstore\n      keccak256(0x00, 0x20)\n      swap1\n      0x02\n      mul\n      add\n      0x00\n      swap2\n      pop\n      swap1\n      pop\n      dup1\n      0x00\n      add\n      sload\n      swap1\n      dup1\n      0x01\n      add\n      sload\n      swap1\n      pop\n      dup3\n      jump\t// out\n        /* \"contracts/Ballot.sol\":748:1016  function giveRightToVoter(address voter) external {... */\n    tag_23:\n        /* \"contracts/Ballot.sol\":831:842  chairperson */\n      0x00\n      dup1\n      sload\n      swap1\n      0x0100\n      exp\n      swap1\n      div\n      0xffffffffffffffffffffffffffffffffffffffff\n      and\n        /* \"contracts/Ballot.sol\":817:842  msg.sender == chairperson */\n      0xffffffffffffffffffffffffffffffffffffffff\n      and\n        /* \"contracts/Ballot.sol\":817:827  msg.sender */\n      caller\n        /* \"contracts/Ballot.sol\":817:842  msg.sender == chairperson */\n      0xffffffffffffffffffffffffffffffffffffffff\n      and\n      eq\n        /* \"contracts/Ballot.sol\":809:887  require(msg.sender == chairperson, \"only chairperson can give rigth to voter\") */\n      tag_51\n      jumpi\n      mload(0x40)\n      0x08c379a000000000000000000000000000000000000000000000000000000000\n      dup2\n      mstore\n      0x04\n      add\n      tag_52\n      swap1\n      tag_53\n      jump\t// in\n    tag_52:\n      mload(0x40)\n      dup1\n      swap2\n      sub\n      swap1\n      revert\n    tag_51:\n        /* \"contracts/Ballot.sol\":907:913  voters */\n      0x01\n        /* \"contracts/Ballot.sol\":907:920  voters[voter] */\n      0x00\n        /* \"contracts/Ballot.sol\":914:919  voter */\n      dup3\n        /* \"contracts/Ballot.sol\":907:920  voters[voter] */\n      0xffffffffffffffffffffffffffffffffffffffff\n      and\n      0xffffffffffffffffffffffffffffffffffffffff\n      and\n      dup2\n      mstore\n      0x20\n      add\n      swap1\n      dup2\n      mstore\n      0x20\n      add\n      0x00\n      keccak256\n        /* \"contracts/Ballot.sol\":907:926  voters[voter].voted */\n      0x01\n      add\n      0x14\n      swap1\n      sload\n      swap1\n      0x0100\n      exp\n      swap1\n      div\n      0xff\n      and\n        /* \"contracts/Ballot.sol\":906:926  !voters[voter].voted */\n      iszero\n        /* \"contracts/Ballot.sol\":898:927  require(!voters[voter].voted) */\n      tag_54\n      jumpi\n      0x00\n      dup1\n      revert\n    tag_54:\n        /* \"contracts/Ballot.sol\":970:971  0 */\n      0x00\n        /* \"contracts/Ballot.sol\":946:952  voters */\n      0x01\n        /* \"contracts/Ballot.sol\":946:959  voters[voter] */\n      0x00\n        /* \"contracts/Ballot.sol\":953:958  voter */\n      dup4\n        /* \"contracts/Ballot.sol\":946:959  voters[voter] */\n      0xffffffffffffffffffffffffffffffffffffffff\n      and\n      0xffffffffffffffffffffffffffffffffffffffff\n      and\n      dup2\n      mstore\n      0x20\n      add\n      swap1\n      dup2\n      mstore\n      0x20\n      add\n      0x00\n      keccak256\n        /* \"contracts/Ballot.sol\":946:966  voters[voter].weight */\n      0x00\n      add\n      sload\n        /* \"contracts/Ballot.sol\":946:971  voters[voter].weight == 0 */\n      eq\n        /* \"contracts/Ballot.sol\":938:972  require(voters[voter].weight == 0) */\n      tag_55\n      jumpi\n      0x00\n      dup1\n      revert\n    tag_55:\n        /* \"contracts/Ballot.sol\":1006:1007  1 */\n      0x01\n        /* \"contracts/Ballot.sol\":983:989  voters */\n      dup1\n        /* \"contracts/Ballot.sol\":983:996  voters[voter] */\n      0x00\n        /* \"contracts/Ballot.sol\":990:995  voter */\n      dup4\n        /* \"contracts/Ballot.sol\":983:996  voters[voter] */\n      0xffffffffffffffffffffffffffffffffffffffff\n      and\n      0xffffffffffffffffffffffffffffffffffffffff\n      and\n      dup2\n      mstore\n      0x20\n      add\n      swap1\n      dup2\n      mstore\n      0x20\n      add\n      0x00\n      keccak256\n        /* \"contracts/Ballot.sol\":983:1003  voters[voter].weight */\n      0x00\n      add\n        /* \"contracts/Ballot.sol\":983:1007  voters[voter].weight = 1 */\n      dup2\n      swap1\n      sstore\n      pop\n        /* \"contracts/Ballot.sol\":748:1016  function giveRightToVoter(address voter) external {... */\n      pop\n      jump\t// out\n        /* \"contracts/Ballot.sol\":302:328  address public chairperson */\n    tag_25:\n      0x00\n      dup1\n      sload\n      swap1\n      0x0100\n      exp\n      swap1\n      div\n      0xffffffffffffffffffffffffffffffffffffffff\n      and\n      dup2\n      jump\t// out\n        /* \"contracts/Ballot.sol\":1024:1710  function delegate(address to) external {... */\n    tag_30:\n        /* \"contracts/Ballot.sol\":1074:1094  Voter storage sender */\n      0x00\n        /* \"contracts/Ballot.sol\":1097:1103  voters */\n      0x01\n        /* \"contracts/Ballot.sol\":1097:1115  voters[msg.sender] */\n      0x00\n        /* \"contracts/Ballot.sol\":1104:1114  msg.sender */\n      caller\n        /* \"contracts/Ballot.sol\":1097:1115  voters[msg.sender] */\n      0xffffffffffffffffffffffffffffffffffffffff\n      and\n      0xffffffffffffffffffffffffffffffffffffffff\n      and\n      dup2\n      mstore\n      0x20\n      add\n      swap1\n      dup2\n      mstore\n      0x20\n      add\n      0x00\n      keccak256\n        /* \"contracts/Ballot.sol\":1074:1115  Voter storage sender = voters[msg.sender] */\n      swap1\n      pop\n        /* \"contracts/Ballot.sol\":1135:1141  sender */\n      dup1\n        /* \"contracts/Ballot.sol\":1135:1147  sender.voted */\n      0x01\n      add\n      0x14\n      swap1\n      sload\n      swap1\n      0x0100\n      exp\n      swap1\n      div\n      0xff\n      and\n        /* \"contracts/Ballot.sol\":1134:1147  !sender.voted */\n      iszero\n        /* \"contracts/Ballot.sol\":1126:1148  require(!sender.voted) */\n      tag_57\n      jumpi\n      0x00\n      dup1\n      revert\n    tag_57:\n        /* \"contracts/Ballot.sol\":1184:1185  0 */\n      0x00\n        /* \"contracts/Ballot.sol\":1167:1173  sender */\n      dup2\n        /* \"contracts/Ballot.sol\":1167:1180  sender.weight */\n      0x00\n      add\n      sload\n        /* \"contracts/Ballot.sol\":1167:1185  sender.weight != 0 */\n      sub\n        /* \"contracts/Ballot.sol\":1159:1186  require(sender.weight != 0) */\n      tag_58\n      jumpi\n      0x00\n      dup1\n      revert\n    tag_58:\n        /* \"contracts/Ballot.sol\":1224:1234  msg.sender */\n      caller\n        /* \"contracts/Ballot.sol\":1205:1234  sender.delegate != msg.sender */\n      0xffffffffffffffffffffffffffffffffffffffff\n      and\n        /* \"contracts/Ballot.sol\":1205:1211  sender */\n      dup2\n        /* \"contracts/Ballot.sol\":1205:1220  sender.delegate */\n      0x01\n      add\n      0x00\n      swap1\n      sload\n      swap1\n      0x0100\n      exp\n      swap1\n      div\n      0xffffffffffffffffffffffffffffffffffffffff\n      and\n        /* \"contracts/Ballot.sol\":1205:1234  sender.delegate != msg.sender */\n      0xffffffffffffffffffffffffffffffffffffffff\n      and\n      sub\n        /* \"contracts/Ballot.sol\":1197:1235  require(sender.delegate != msg.sender) */\n      tag_59\n      jumpi\n      0x00\n      dup1\n      revert\n    tag_59:\n        /* \"contracts/Ballot.sol\":1248:1379  while(voters[to].delegate != address(0)){... */\n    tag_60:\n        /* \"contracts/Ballot.sol\":1285:1286  0 */\n      0x00\n        /* \"contracts/Ballot.sol\":1254:1287  voters[to].delegate != address(0) */\n      0xffffffffffffffffffffffffffffffffffffffff\n      and\n        /* \"contracts/Ballot.sol\":1254:1260  voters */\n      0x01\n        /* \"contracts/Ballot.sol\":1254:1264  voters[to] */\n      0x00\n        /* \"contracts/Ballot.sol\":1261:1263  to */\n      dup5\n        /* \"contracts/Ballot.sol\":1254:1264  voters[to] */\n      0xffffffffffffffffffffffffffffffffffffffff\n      and\n      0xffffffffffffffffffffffffffffffffffffffff\n      and\n      dup2\n      mstore\n      0x20\n      add\n      swap1\n      dup2\n      mstore\n      0x20\n      add\n      0x00\n      keccak256\n        /* \"contracts/Ballot.sol\":1254:1273  voters[to].delegate */\n      0x01\n      add\n      0x00\n      swap1\n      sload\n      swap1\n      0x0100\n      exp\n      swap1\n      div\n      0xffffffffffffffffffffffffffffffffffffffff\n      and\n        /* \"contracts/Ballot.sol\":1254:1287  voters[to].delegate != address(0) */\n      0xffffffffffffffffffffffffffffffffffffffff\n      and\n      eq\n        /* \"contracts/Ballot.sol\":1248:1379  while(voters[to].delegate != address(0)){... */\n      tag_61\n      jumpi\n        /* \"contracts/Ballot.sol\":1308:1314  voters */\n      0x01\n        /* \"contracts/Ballot.sol\":1308:1318  voters[to] */\n      0x00\n        /* \"contracts/Ballot.sol\":1315:1317  to */\n      dup4\n        /* \"contracts/Ballot.sol\":1308:1318  voters[to] */\n      0xffffffffffffffffffffffffffffffffffffffff\n      and\n      0xffffffffffffffffffffffffffffffffffffffff\n      and\n      dup2\n      mstore\n      0x20\n      add\n      swap1\n      dup2\n      mstore\n      0x20\n      add\n      0x00\n      keccak256\n        /* \"contracts/Ballot.sol\":1308:1327  voters[to].delegate */\n      0x01\n      add\n      0x00\n      swap1\n      sload\n      swap1\n      0x0100\n      exp\n      swap1\n      div\n      0xffffffffffffffffffffffffffffffffffffffff\n      and\n        /* \"contracts/Ballot.sol\":1303:1327  to = voters[to].delegate */\n      swap2\n      pop\n        /* \"contracts/Ballot.sol\":1356:1366  msg.sender */\n      caller\n        /* \"contracts/Ballot.sol\":1350:1366  to != msg.sender */\n      0xffffffffffffffffffffffffffffffffffffffff\n      and\n        /* \"contracts/Ballot.sol\":1350:1352  to */\n      dup3\n        /* \"contracts/Ballot.sol\":1350:1366  to != msg.sender */\n      0xffffffffffffffffffffffffffffffffffffffff\n      and\n      sub\n        /* \"contracts/Ballot.sol\":1342:1367  require(to != msg.sender) */\n      tag_62\n      jumpi\n      0x00\n      dup1\n      revert\n    tag_62:\n        /* \"contracts/Ballot.sol\":1248:1379  while(voters[to].delegate != address(0)){... */\n      jump(tag_60)\n    tag_61:\n        /* \"contracts/Ballot.sol\":1391:1414  Voter storage delegate_ */\n      0x00\n        /* \"contracts/Ballot.sol\":1417:1423  voters */\n      0x01\n        /* \"contracts/Ballot.sol\":1417:1427  voters[to] */\n      0x00\n        /* \"contracts/Ballot.sol\":1424:1426  to */\n      dup5\n        /* \"contracts/Ballot.sol\":1417:1427  voters[to] */\n      0xffffffffffffffffffffffffffffffffffffffff\n      and\n      0xffffffffffffffffffffffffffffffffffffffff\n      and\n      dup2\n      mstore\n      0x20\n      add\n      swap1\n      dup2\n      mstore\n      0x20\n      add\n      0x00\n      keccak256\n        /* \"contracts/Ballot.sol\":1391:1427  Voter storage delegate_ = voters[to] */\n      swap1\n      pop\n        /* \"contracts/Ballot.sol\":1455:1459  true */\n      0x01\n        /* \"contracts/Ballot.sol\":1440:1446  sender */\n      dup3\n        /* \"contracts/Ballot.sol\":1440:1452  sender.voted */\n      0x01\n      add\n      0x14\n        /* \"contracts/Ballot.sol\":1440:1459  sender.voted = true */\n      0x0100\n      exp\n      dup2\n      sload\n      dup2\n      0xff\n      mul\n      not\n      and\n      swap1\n      dup4\n      iszero\n      iszero\n      mul\n      or\n      swap1\n      sstore\n      pop\n        /* \"contracts/Ballot.sol\":1488:1490  to */\n      dup3\n        /* \"contracts/Ballot.sol\":1470:1476  sender */\n      dup3\n        /* \"contracts/Ballot.sol\":1470:1485  sender.delegate */\n      0x01\n      add\n      0x00\n        /* \"contracts/Ballot.sol\":1470:1490  sender.delegate = to */\n      0x0100\n      exp\n      dup2\n      sload\n      dup2\n      0xffffffffffffffffffffffffffffffffffffffff\n      mul\n      not\n      and\n      swap1\n      dup4\n      0xffffffffffffffffffffffffffffffffffffffff\n      and\n      mul\n      or\n      swap1\n      sstore\n      pop\n        /* \"contracts/Ballot.sol\":1531:1532  1 */\n      0x01\n        /* \"contracts/Ballot.sol\":1511:1520  delegate_ */\n      dup2\n        /* \"contracts/Ballot.sol\":1511:1527  delegate_.weight */\n      0x00\n      add\n      sload\n        /* \"contracts/Ballot.sol\":1511:1532  delegate_.weight >= 1 */\n      lt\n      iszero\n        /* \"contracts/Ballot.sol\":1503:1533  require(delegate_.weight >= 1) */\n      tag_63\n      jumpi\n      0x00\n      dup1\n      revert\n    tag_63:\n        /* \"contracts/Ballot.sol\":1547:1556  delegate_ */\n      dup1\n        /* \"contracts/Ballot.sol\":1547:1562  delegate_.voted */\n      0x01\n      add\n      0x14\n      swap1\n      sload\n      swap1\n      0x0100\n      exp\n      swap1\n      div\n      0xff\n      and\n        /* \"contracts/Ballot.sol\":1544:1703  if(delegate_.voted){... */\n      iszero\n      tag_64\n      jumpi\n        /* \"contracts/Ballot.sol\":1612:1618  sender */\n      dup2\n        /* \"contracts/Ballot.sol\":1612:1625  sender.weight */\n      0x00\n      add\n      sload\n        /* \"contracts/Ballot.sol\":1578:1587  proposals */\n      0x02\n        /* \"contracts/Ballot.sol\":1588:1597  delegate_ */\n      dup3\n        /* \"contracts/Ballot.sol\":1588:1603  delegate_.index */\n      0x02\n      add\n      sload\n        /* \"contracts/Ballot.sol\":1578:1604  proposals[delegate_.index] */\n      dup2\n      sload\n      dup2\n      lt\n      tag_65\n      jumpi\n      tag_66\n      tag_44\n      jump\t// in\n    tag_66:\n    tag_65:\n      swap1\n      0x00\n      mstore\n      keccak256(0x00, 0x20)\n      swap1\n      0x02\n      mul\n      add\n        /* \"contracts/Ballot.sol\":1578:1608  proposals[delegate_.index].num */\n      0x01\n      add\n      0x00\n        /* \"contracts/Ballot.sol\":1578:1625  proposals[delegate_.index].num += sender.weight */\n      dup3\n      dup3\n      sload\n      tag_68\n      swap2\n      swap1\n      tag_47\n      jump\t// in\n    tag_68:\n      swap3\n      pop\n      pop\n      dup2\n      swap1\n      sstore\n      pop\n        /* \"contracts/Ballot.sol\":1544:1703  if(delegate_.voted){... */\n      jump(tag_69)\n    tag_64:\n        /* \"contracts/Ballot.sol\":1678:1684  sender */\n      dup2\n        /* \"contracts/Ballot.sol\":1678:1691  sender.weight */\n      0x00\n      add\n      sload\n        /* \"contracts/Ballot.sol\":1658:1667  delegate_ */\n      dup2\n        /* \"contracts/Ballot.sol\":1658:1674  delegate_.weight */\n      0x00\n      add\n      0x00\n        /* \"contracts/Ballot.sol\":1658:1691  delegate_.weight += sender.weight */\n      dup3\n      dup3\n      sload\n      tag_70\n      swap2\n      swap1\n      tag_47\n      jump\t// in\n    tag_70:\n      swap3\n      pop\n      pop\n      dup2\n      swap1\n      sstore\n      pop\n        /* \"contracts/Ballot.sol\":1544:1703  if(delegate_.voted){... */\n    tag_69:\n        /* \"contracts/Ballot.sol\":1063:1710  {... */\n      pop\n      pop\n        /* \"contracts/Ballot.sol\":1024:1710  function delegate(address to) external {... */\n      pop\n      jump\t// out\n        /* \"contracts/Ballot.sol\":2033:2366  function winningProposal() public view returns(uint winningProposal_){... */\n    tag_32:\n        /* \"contracts/Ballot.sol\":2080:2101  uint winningProposal_ */\n      0x00\n        /* \"contracts/Ballot.sol\":2113:2132  uint winningVoteNum */\n      dup1\n        /* \"contracts/Ballot.sol\":2135:2136  0 */\n      0x00\n        /* \"contracts/Ballot.sol\":2113:2136  uint winningVoteNum = 0 */\n      swap1\n      pop\n        /* \"contracts/Ballot.sol\":2151:2157  uint p */\n      0x00\n        /* \"contracts/Ballot.sol\":2147:2359  for(uint p = 0; p < proposals.length; p++){... */\n    tag_72:\n        /* \"contracts/Ballot.sol\":2167:2176  proposals */\n      0x02\n        /* \"contracts/Ballot.sol\":2167:2183  proposals.length */\n      dup1\n      sload\n      swap1\n      pop\n        /* \"contracts/Ballot.sol\":2163:2164  p */\n      dup2\n        /* \"contracts/Ballot.sol\":2163:2183  p < proposals.length */\n      lt\n        /* \"contracts/Ballot.sol\":2147:2359  for(uint p = 0; p < proposals.length; p++){... */\n      iszero\n      tag_73\n      jumpi\n        /* \"contracts/Ballot.sol\":2226:2240  winningVoteNum */\n      dup2\n        /* \"contracts/Ballot.sol\":2207:2216  proposals */\n      0x02\n        /* \"contracts/Ballot.sol\":2217:2218  p */\n      dup3\n        /* \"contracts/Ballot.sol\":2207:2219  proposals[p] */\n      dup2\n      sload\n      dup2\n      lt\n      tag_75\n      jumpi\n      tag_76\n      tag_44\n      jump\t// in\n    tag_76:\n    tag_75:\n      swap1\n      0x00\n      mstore\n      keccak256(0x00, 0x20)\n      swap1\n      0x02\n      mul\n      add\n        /* \"contracts/Ballot.sol\":2207:2223  proposals[p].num */\n      0x01\n      add\n      sload\n        /* \"contracts/Ballot.sol\":2207:2240  proposals[p].num > winningVoteNum */\n      gt\n        /* \"contracts/Ballot.sol\":2204:2348  if(proposals[p].num > winningVoteNum){... */\n      iszero\n      tag_78\n      jumpi\n        /* \"contracts/Ballot.sol\":2279:2280  p */\n      dup1\n        /* \"contracts/Ballot.sol\":2260:2280  winningProposal_ = p */\n      swap3\n      pop\n        /* \"contracts/Ballot.sol\":2316:2325  proposals */\n      0x02\n        /* \"contracts/Ballot.sol\":2326:2327  p */\n      dup2\n        /* \"contracts/Ballot.sol\":2316:2328  proposals[p] */\n      dup2\n      sload\n      dup2\n      lt\n      tag_79\n      jumpi\n      tag_80\n      tag_44\n      jump\t// in\n    tag_80:\n    tag_79:\n      swap1\n      0x00\n      mstore\n      keccak256(0x00, 0x20)\n      swap1\n      0x02\n      mul\n      add\n        /* \"contracts/Ballot.sol\":2316:2332  proposals[p].num */\n      0x01\n      add\n      sload\n        /* \"contracts/Ballot.sol\":2299:2332  winningVoteNum = proposals[p].num */\n      swap2\n      pop\n        /* \"contracts/Ballot.sol\":2204:2348  if(proposals[p].num > winningVoteNum){... */\n    tag_78:\n        /* \"contracts/Ballot.sol\":2185:2188  p++ */\n      dup1\n      dup1\n      0x01\n      add\n      swap2\n      pop\n      pop\n        /* \"contracts/Ballot.sol\":2147:2359  for(uint p = 0; p < proposals.length; p++){... */\n      jump(tag_72)\n    tag_73:\n      pop\n        /* \"contracts/Ballot.sol\":2102:2366  {... */\n      pop\n        /* \"contracts/Ballot.sol\":2033:2366  function winningProposal() public view returns(uint winningProposal_){... */\n      swap1\n      jump\t// out\n        /* \"contracts/Ballot.sol\":2375:2509  function winnerName() external view returns(bytes32 proposalName_){... */\n    tag_36:\n        /* \"contracts/Ballot.sol\":2419:2440  bytes32 proposalName_ */\n      0x00\n        /* \"contracts/Ballot.sol\":2468:2477  proposals */\n      0x02\n        /* \"contracts/Ballot.sol\":2478:2495  winningProposal() */\n      tag_83\n        /* \"contracts/Ballot.sol\":2478:2493  winningProposal */\n      tag_32\n        /* \"contracts/Ballot.sol\":2478:2495  winningProposal() */\n      jump\t// in\n    tag_83:\n        /* \"contracts/Ballot.sol\":2468:2496  proposals[winningProposal()] */\n      dup2\n      sload\n      dup2\n      lt\n      tag_84\n      jumpi\n      tag_85\n      tag_44\n      jump\t// in\n    tag_85:\n    tag_84:\n      swap1\n      0x00\n      mstore\n      keccak256(0x00, 0x20)\n      swap1\n      0x02\n      mul\n      add\n        /* \"contracts/Ballot.sol\":2468:2501  proposals[winningProposal()].name */\n      0x00\n      add\n      sload\n        /* \"contracts/Ballot.sol\":2452:2501  proposalName_ = proposals[winningProposal()].name */\n      swap1\n      pop\n        /* \"contracts/Ballot.sol\":2375:2509  function winnerName() external view returns(bytes32 proposalName_){... */\n      swap1\n      jump\t// out\n        /* \"#utility.yul\":88:205   */\n    tag_88:\n        /* \"#utility.yul\":197:198   */\n      0x00\n        /* \"#utility.yul\":194:195   */\n      dup1\n        /* \"#utility.yul\":187:199   */\n      revert\n        /* \"#utility.yul\":334:411   */\n    tag_90:\n        /* \"#utility.yul\":371:378   */\n      0x00\n        /* \"#utility.yul\":400:405   */\n      dup2\n        /* \"#utility.yul\":389:405   */\n      swap1\n      pop\n        /* \"#utility.yul\":334:411   */\n      swap2\n      swap1\n      pop\n      jump\t// out\n        /* \"#utility.yul\":417:539   */\n    tag_91:\n        /* \"#utility.yul\":490:514   */\n      tag_111\n        /* \"#utility.yul\":508:513   */\n      dup2\n        /* \"#utility.yul\":490:514   */\n      tag_90\n      jump\t// in\n    tag_111:\n        /* \"#utility.yul\":483:488   */\n      dup2\n        /* \"#utility.yul\":480:515   */\n      eq\n        /* \"#utility.yul\":470:533   */\n      tag_112\n      jumpi\n        /* \"#utility.yul\":529:530   */\n      0x00\n        /* \"#utility.yul\":526:527   */\n      dup1\n        /* \"#utility.yul\":519:531   */\n      revert\n        /* \"#utility.yul\":470:533   */\n    tag_112:\n        /* \"#utility.yul\":417:539   */\n      pop\n      jump\t// out\n        /* \"#utility.yul\":545:684   */\n    tag_92:\n        /* \"#utility.yul\":591:596   */\n      0x00\n        /* \"#utility.yul\":629:635   */\n      dup2\n        /* \"#utility.yul\":616:636   */\n      calldataload\n        /* \"#utility.yul\":607:636   */\n      swap1\n      pop\n        /* \"#utility.yul\":645:678   */\n      tag_114\n        /* \"#utility.yul\":672:677   */\n      dup2\n        /* \"#utility.yul\":645:678   */\n      tag_91\n      jump\t// in\n    tag_114:\n        /* \"#utility.yul\":545:684   */\n      swap3\n      swap2\n      pop\n      pop\n      jump\t// out\n        /* \"#utility.yul\":690:1019   */\n    tag_13:\n        /* \"#utility.yul\":749:755   */\n      0x00\n        /* \"#utility.yul\":798:800   */\n      0x20\n        /* \"#utility.yul\":786:795   */\n      dup3\n        /* \"#utility.yul\":777:784   */\n      dup5\n        /* \"#utility.yul\":773:796   */\n      sub\n        /* \"#utility.yul\":769:801   */\n      slt\n        /* \"#utility.yul\":766:885   */\n      iszero\n      tag_116\n      jumpi\n        /* \"#utility.yul\":804:883   */\n      tag_117\n      tag_88\n      jump\t// in\n    tag_117:\n        /* \"#utility.yul\":766:885   */\n    tag_116:\n        /* \"#utility.yul\":924:925   */\n      0x00\n        /* \"#utility.yul\":949:1002   */\n      tag_118\n        /* \"#utility.yul\":994:1001   */\n      dup5\n        /* \"#utility.yul\":985:991   */\n      dup3\n        /* \"#utility.yul\":974:983   */\n      dup6\n        /* \"#utility.yul\":970:992   */\n      add\n        /* \"#utility.yul\":949:1002   */\n      tag_92\n      jump\t// in\n    tag_118:\n        /* \"#utility.yul\":939:1002   */\n      swap2\n      pop\n        /* \"#utility.yul\":895:1012   */\n      pop\n        /* \"#utility.yul\":690:1019   */\n      swap3\n      swap2\n      pop\n      pop\n      jump\t// out\n        /* \"#utility.yul\":1025:1102   */\n    tag_93:\n        /* \"#utility.yul\":1062:1069   */\n      0x00\n        /* \"#utility.yul\":1091:1096   */\n      dup2\n        /* \"#utility.yul\":1080:1096   */\n      swap1\n      pop\n        /* \"#utility.yul\":1025:1102   */\n      swap2\n      swap1\n      pop\n      jump\t// out\n        /* \"#utility.yul\":1108:1226   */\n    tag_94:\n        /* \"#utility.yul\":1195:1219   */\n      tag_121\n        /* \"#utility.yul\":1213:1218   */\n      dup2\n        /* \"#utility.yul\":1195:1219   */\n      tag_93\n      jump\t// in\n    tag_121:\n        /* \"#utility.yul\":1190:1193   */\n      dup3\n        /* \"#utility.yul\":1183:1220   */\n      mstore\n        /* \"#utility.yul\":1108:1226   */\n      pop\n      pop\n      jump\t// out\n        /* \"#utility.yul\":1232:1350   */\n    tag_95:\n        /* \"#utility.yul\":1319:1343   */\n      tag_123\n        /* \"#utility.yul\":1337:1342   */\n      dup2\n        /* \"#utility.yul\":1319:1343   */\n      tag_90\n      jump\t// in\n    tag_123:\n        /* \"#utility.yul\":1314:1317   */\n      dup3\n        /* \"#utility.yul\":1307:1344   */\n      mstore\n        /* \"#utility.yul\":1232:1350   */\n      pop\n      pop\n      jump\t// out\n        /* \"#utility.yul\":1356:1688   */\n    tag_19:\n        /* \"#utility.yul\":1477:1481   */\n      0x00\n        /* \"#utility.yul\":1515:1517   */\n      0x40\n        /* \"#utility.yul\":1504:1513   */\n      dup3\n        /* \"#utility.yul\":1500:1518   */\n      add\n        /* \"#utility.yul\":1492:1518   */\n      swap1\n      pop\n        /* \"#utility.yul\":1528:1599   */\n      tag_125\n        /* \"#utility.yul\":1596:1597   */\n      0x00\n        /* \"#utility.yul\":1585:1594   */\n      dup4\n        /* \"#utility.yul\":1581:1598   */\n      add\n        /* \"#utility.yul\":1572:1578   */\n      dup6\n        /* \"#utility.yul\":1528:1599   */\n      tag_94\n      jump\t// in\n    tag_125:\n        /* \"#utility.yul\":1609:1681   */\n      tag_126\n        /* \"#utility.yul\":1677:1679   */\n      0x20\n        /* \"#utility.yul\":1666:1675   */\n      dup4\n        /* \"#utility.yul\":1662:1680   */\n      add\n        /* \"#utility.yul\":1653:1659   */\n      dup5\n        /* \"#utility.yul\":1609:1681   */\n      tag_95\n      jump\t// in\n    tag_126:\n        /* \"#utility.yul\":1356:1688   */\n      swap4\n      swap3\n      pop\n      pop\n      pop\n      jump\t// out\n        /* \"#utility.yul\":1694:1820   */\n    tag_96:\n        /* \"#utility.yul\":1731:1738   */\n      0x00\n        /* \"#utility.yul\":1771:1813   */\n      0xffffffffffffffffffffffffffffffffffffffff\n        /* \"#utility.yul\":1764:1769   */\n      dup3\n        /* \"#utility.yul\":1760:1814   */\n      and\n        /* \"#utility.yul\":1749:1814   */\n      swap1\n      pop\n        /* \"#utility.yul\":1694:1820   */\n      swap2\n      swap1\n      pop\n      jump\t// out\n        /* \"#utility.yul\":1826:1922   */\n    tag_97:\n        /* \"#utility.yul\":1863:1870   */\n      0x00\n        /* \"#utility.yul\":1892:1916   */\n      tag_129\n        /* \"#utility.yul\":1910:1915   */\n      dup3\n        /* \"#utility.yul\":1892:1916   */\n      tag_96\n      jump\t// in\n    tag_129:\n        /* \"#utility.yul\":1881:1916   */\n      swap1\n      pop\n        /* \"#utility.yul\":1826:1922   */\n      swap2\n      swap1\n      pop\n      jump\t// out\n        /* \"#utility.yul\":1928:2050   */\n    tag_98:\n        /* \"#utility.yul\":2001:2025   */\n      tag_131\n        /* \"#utility.yul\":2019:2024   */\n      dup2\n        /* \"#utility.yul\":2001:2025   */\n      tag_97\n      jump\t// in\n    tag_131:\n        /* \"#utility.yul\":1994:1999   */\n      dup2\n        /* \"#utility.yul\":1991:2026   */\n      eq\n        /* \"#utility.yul\":1981:2044   */\n      tag_132\n      jumpi\n        /* \"#utility.yul\":2040:2041   */\n      0x00\n        /* \"#utility.yul\":2037:2038   */\n      dup1\n        /* \"#utility.yul\":2030:2042   */\n      revert\n        /* \"#utility.yul\":1981:2044   */\n    tag_132:\n        /* \"#utility.yul\":1928:2050   */\n      pop\n      jump\t// out\n        /* \"#utility.yul\":2056:2195   */\n    tag_99:\n        /* \"#utility.yul\":2102:2107   */\n      0x00\n        /* \"#utility.yul\":2140:2146   */\n      dup2\n        /* \"#utility.yul\":2127:2147   */\n      calldataload\n        /* \"#utility.yul\":2118:2147   */\n      swap1\n      pop\n        /* \"#utility.yul\":2156:2189   */\n      tag_134\n        /* \"#utility.yul\":2183:2188   */\n      dup2\n        /* \"#utility.yul\":2156:2189   */\n      tag_98\n      jump\t// in\n    tag_134:\n        /* \"#utility.yul\":2056:2195   */\n      swap3\n      swap2\n      pop\n      pop\n      jump\t// out\n        /* \"#utility.yul\":2201:2530   */\n    tag_22:\n        /* \"#utility.yul\":2260:2266   */\n      0x00\n        /* \"#utility.yul\":2309:2311   */\n      0x20\n        /* \"#utility.yul\":2297:2306   */\n      dup3\n        /* \"#utility.yul\":2288:2295   */\n      dup5\n        /* \"#utility.yul\":2284:2307   */\n      sub\n        /* \"#utility.yul\":2280:2312   */\n      slt\n        /* \"#utility.yul\":2277:2396   */\n      iszero\n      tag_136\n      jumpi\n        /* \"#utility.yul\":2315:2394   */\n      tag_137\n      tag_88\n      jump\t// in\n    tag_137:\n        /* \"#utility.yul\":2277:2396   */\n    tag_136:\n        /* \"#utility.yul\":2435:2436   */\n      0x00\n        /* \"#utility.yul\":2460:2513   */\n      tag_138\n        /* \"#utility.yul\":2505:2512   */\n      dup5\n        /* \"#utility.yul\":2496:2502   */\n      dup3\n        /* \"#utility.yul\":2485:2494   */\n      dup6\n        /* \"#utility.yul\":2481:2503   */\n      add\n        /* \"#utility.yul\":2460:2513   */\n      tag_99\n      jump\t// in\n    tag_138:\n        /* \"#utility.yul\":2450:2513   */\n      swap2\n      pop\n        /* \"#utility.yul\":2406:2523   */\n      pop\n        /* \"#utility.yul\":2201:2530   */\n      swap3\n      swap2\n      pop\n      pop\n      jump\t// out\n        /* \"#utility.yul\":2536:2654   */\n    tag_100:\n        /* \"#utility.yul\":2623:2647   */\n      tag_140\n        /* \"#utility.yul\":2641:2646   */\n      dup2\n        /* \"#utility.yul\":2623:2647   */\n      tag_97\n      jump\t// in\n    tag_140:\n        /* \"#utility.yul\":2618:2621   */\n      dup3\n        /* \"#utility.yul\":2611:2648   */\n      mstore\n        /* \"#utility.yul\":2536:2654   */\n      pop\n      pop\n      jump\t// out\n        /* \"#utility.yul\":2660:2882   */\n    tag_27:\n        /* \"#utility.yul\":2753:2757   */\n      0x00\n        /* \"#utility.yul\":2791:2793   */\n      0x20\n        /* \"#utility.yul\":2780:2789   */\n      dup3\n        /* \"#utility.yul\":2776:2794   */\n      add\n        /* \"#utility.yul\":2768:2794   */\n      swap1\n      pop\n        /* \"#utility.yul\":2804:2875   */\n      tag_142\n        /* \"#utility.yul\":2872:2873   */\n      0x00\n        /* \"#utility.yul\":2861:2870   */\n      dup4\n        /* \"#utility.yul\":2857:2874   */\n      add\n        /* \"#utility.yul\":2848:2854   */\n      dup5\n        /* \"#utility.yul\":2804:2875   */\n      tag_100\n      jump\t// in\n    tag_142:\n        /* \"#utility.yul\":2660:2882   */\n      swap3\n      swap2\n      pop\n      pop\n      jump\t// out\n        /* \"#utility.yul\":2888:3110   */\n    tag_34:\n        /* \"#utility.yul\":2981:2985   */\n      0x00\n        /* \"#utility.yul\":3019:3021   */\n      0x20\n        /* \"#utility.yul\":3008:3017   */\n      dup3\n        /* \"#utility.yul\":3004:3022   */\n      add\n        /* \"#utility.yul\":2996:3022   */\n      swap1\n      pop\n        /* \"#utility.yul\":3032:3103   */\n      tag_144\n        /* \"#utility.yul\":3100:3101   */\n      0x00\n        /* \"#utility.yul\":3089:3098   */\n      dup4\n        /* \"#utility.yul\":3085:3102   */\n      add\n        /* \"#utility.yul\":3076:3082   */\n      dup5\n        /* \"#utility.yul\":3032:3103   */\n      tag_95\n      jump\t// in\n    tag_144:\n        /* \"#utility.yul\":2888:3110   */\n      swap3\n      swap2\n      pop\n      pop\n      jump\t// out\n        /* \"#utility.yul\":3116:3338   */\n    tag_38:\n        /* \"#utility.yul\":3209:3213   */\n      0x00\n        /* \"#utility.yul\":3247:3249   */\n      0x20\n        /* \"#utility.yul\":3236:3245   */\n      dup3\n        /* \"#utility.yul\":3232:3250   */\n      add\n        /* \"#utility.yul\":3224:3250   */\n      swap1\n      pop\n        /* \"#utility.yul\":3260:3331   */\n      tag_146\n        /* \"#utility.yul\":3328:3329   */\n      0x00\n        /* \"#utility.yul\":3317:3326   */\n      dup4\n        /* \"#utility.yul\":3313:3330   */\n      add\n        /* \"#utility.yul\":3304:3310   */\n      dup5\n        /* \"#utility.yul\":3260:3331   */\n      tag_94\n      jump\t// in\n    tag_146:\n        /* \"#utility.yul\":3116:3338   */\n      swap3\n      swap2\n      pop\n      pop\n      jump\t// out\n        /* \"#utility.yul\":3344:3524   */\n    tag_44:\n        /* \"#utility.yul\":3392:3469   */\n      0x4e487b7100000000000000000000000000000000000000000000000000000000\n        /* \"#utility.yul\":3389:3390   */\n      0x00\n        /* \"#utility.yul\":3382:3470   */\n      mstore\n        /* \"#utility.yul\":3489:3493   */\n      0x32\n        /* \"#utility.yul\":3486:3487   */\n      0x04\n        /* \"#utility.yul\":3479:3494   */\n      mstore\n        /* \"#utility.yul\":3513:3517   */\n      0x24\n        /* \"#utility.yul\":3510:3511   */\n      0x00\n        /* \"#utility.yul\":3503:3518   */\n      revert\n        /* \"#utility.yul\":3530:3710   */\n    tag_101:\n        /* \"#utility.yul\":3578:3655   */\n      0x4e487b7100000000000000000000000000000000000000000000000000000000\n        /* \"#utility.yul\":3575:3576   */\n      0x00\n        /* \"#utility.yul\":3568:3656   */\n      mstore\n        /* \"#utility.yul\":3675:3679   */\n      0x11\n        /* \"#utility.yul\":3672:3673   */\n      0x04\n        /* \"#utility.yul\":3665:3680   */\n      mstore\n        /* \"#utility.yul\":3699:3703   */\n      0x24\n        /* \"#utility.yul\":3696:3697   */\n      0x00\n        /* \"#utility.yul\":3689:3704   */\n      revert\n        /* \"#utility.yul\":3716:3907   */\n    tag_47:\n        /* \"#utility.yul\":3756:3759   */\n      0x00\n        /* \"#utility.yul\":3775:3795   */\n      tag_150\n        /* \"#utility.yul\":3793:3794   */\n      dup3\n        /* \"#utility.yul\":3775:3795   */\n      tag_90\n      jump\t// in\n    tag_150:\n        /* \"#utility.yul\":3770:3795   */\n      swap2\n      pop\n        /* \"#utility.yul\":3809:3829   */\n      tag_151\n        /* \"#utility.yul\":3827:3828   */\n      dup4\n        /* \"#utility.yul\":3809:3829   */\n      tag_90\n      jump\t// in\n    tag_151:\n        /* \"#utility.yul\":3804:3829   */\n      swap3\n      pop\n        /* \"#utility.yul\":3852:3853   */\n      dup3\n        /* \"#utility.yul\":3849:3850   */\n      dup3\n        /* \"#utility.yul\":3845:3854   */\n      add\n        /* \"#utility.yul\":3838:3854   */\n      swap1\n      pop\n        /* \"#utility.yul\":3873:3876   */\n      dup1\n        /* \"#utility.yul\":3870:3871   */\n      dup3\n        /* \"#utility.yul\":3867:3877   */\n      gt\n        /* \"#utility.yul\":3864:3900   */\n      iszero\n      tag_152\n      jumpi\n        /* \"#utility.yul\":3880:3898   */\n      tag_153\n      tag_101\n      jump\t// in\n    tag_153:\n        /* \"#utility.yul\":3864:3900   */\n    tag_152:\n        /* \"#utility.yul\":3716:3907   */\n      swap3\n      swap2\n      pop\n      pop\n      jump\t// out\n        /* \"#utility.yul\":3913:4082   */\n    tag_102:\n        /* \"#utility.yul\":3997:4008   */\n      0x00\n        /* \"#utility.yul\":4031:4037   */\n      dup3\n        /* \"#utility.yul\":4026:4029   */\n      dup3\n        /* \"#utility.yul\":4019:4038   */\n      mstore\n        /* \"#utility.yul\":4071:4075   */\n      0x20\n        /* \"#utility.yul\":4066:4069   */\n      dup3\n        /* \"#utility.yul\":4062:4076   */\n      add\n        /* \"#utility.yul\":4047:4076   */\n      swap1\n      pop\n        /* \"#utility.yul\":3913:4082   */\n      swap3\n      swap2\n      pop\n      pop\n      jump\t// out\n        /* \"#utility.yul\":4088:4315   */\n    tag_103:\n        /* \"#utility.yul\":4228:4262   */\n      0x6f6e6c79206368616972706572736f6e2063616e206769766520726967746820\n        /* \"#utility.yul\":4224:4225   */\n      0x00\n        /* \"#utility.yul\":4216:4222   */\n      dup3\n        /* \"#utility.yul\":4212:4226   */\n      add\n        /* \"#utility.yul\":4205:4263   */\n      mstore\n        /* \"#utility.yul\":4297:4307   */\n      0x746f20766f746572000000000000000000000000000000000000000000000000\n        /* \"#utility.yul\":4292:4294   */\n      0x20\n        /* \"#utility.yul\":4284:4290   */\n      dup3\n        /* \"#utility.yul\":4280:4295   */\n      add\n        /* \"#utility.yul\":4273:4308   */\n      mstore\n        /* \"#utility.yul\":4088:4315   */\n      pop\n      jump\t// out\n        /* \"#utility.yul\":4321:4687   */\n    tag_104:\n        /* \"#utility.yul\":4463:4466   */\n      0x00\n        /* \"#utility.yul\":4484:4551   */\n      tag_157\n        /* \"#utility.yul\":4548:4550   */\n      0x28\n        /* \"#utility.yul\":4543:4546   */\n      dup4\n        /* \"#utility.yul\":4484:4551   */\n      tag_102\n      jump\t// in\n    tag_157:\n        /* \"#utility.yul\":4477:4551   */\n      swap2\n      pop\n        /* \"#utility.yul\":4560:4653   */\n      tag_158\n        /* \"#utility.yul\":4649:4652   */\n      dup3\n        /* \"#utility.yul\":4560:4653   */\n      tag_103\n      jump\t// in\n    tag_158:\n        /* \"#utility.yul\":4678:4680   */\n      0x40\n        /* \"#utility.yul\":4673:4676   */\n      dup3\n        /* \"#utility.yul\":4669:4681   */\n      add\n        /* \"#utility.yul\":4662:4681   */\n      swap1\n      pop\n        /* \"#utility.yul\":4321:4687   */\n      swap2\n      swap1\n      pop\n      jump\t// out\n        /* \"#utility.yul\":4693:5112   */\n    tag_53:\n        /* \"#utility.yul\":4859:4863   */\n      0x00\n        /* \"#utility.yul\":4897:4899   */\n      0x20\n        /* \"#utility.yul\":4886:4895   */\n      dup3\n        /* \"#utility.yul\":4882:4900   */\n      add\n        /* \"#utility.yul\":4874:4900   */\n      swap1\n      pop\n        /* \"#utility.yul\":4946:4955   */\n      dup2\n        /* \"#utility.yul\":4940:4944   */\n      dup2\n        /* \"#utility.yul\":4936:4956   */\n      sub\n        /* \"#utility.yul\":4932:4933   */\n      0x00\n        /* \"#utility.yul\":4921:4930   */\n      dup4\n        /* \"#utility.yul\":4917:4934   */\n      add\n        /* \"#utility.yul\":4910:4957   */\n      mstore\n        /* \"#utility.yul\":4974:5105   */\n      tag_160\n        /* \"#utility.yul\":5100:5104   */\n      dup2\n        /* \"#utility.yul\":4974:5105   */\n      tag_104\n      jump\t// in\n    tag_160:\n        /* \"#utility.yul\":4966:5105   */\n      swap1\n      pop\n        /* \"#utility.yul\":4693:5112   */\n      swap2\n      swap1\n      pop\n      jump\t// out\n\n    auxdata: 0xa2646970667358221220a760c4b8d72f7823d4823d78a3ec5decf95965fc3650f06696cb75ba63f3f45464736f6c634300081a0033\n}\n",
				"bytecode": {
					"linkReferences": {},
					"object": "608060405234801561000f575f80fd5b50604051610e25380380610e25833981810160405281019061003191906102f2565b335f806101000a81548173ffffffffffffffffffffffffffffffffffffffff021916908373ffffffffffffffffffffffffffffffffffffffff1602179055506001805f805f9054906101000a900473ffffffffffffffffffffffffffffffffffffffff1673ffffffffffffffffffffffffffffffffffffffff1673ffffffffffffffffffffffffffffffffffffffff1681526020019081526020015f205f01819055505f5b815181101561015757600260405180604001604052808484815181106100ff576100fe610339565b5b602002602001015181526020015f815250908060018154018082558091505060019003905f5260205f2090600202015f909190919091505f820151815f015560208201518160010155505080806001019150506100d6565b5050610366565b5f604051905090565b5f80fd5b5f80fd5b5f80fd5b5f601f19601f8301169050919050565b7f4e487b71000000000000000000000000000000000000000000000000000000005f52604160045260245ffd5b6101b982610173565b810181811067ffffffffffffffff821117156101d8576101d7610183565b5b80604052505050565b5f6101ea61015e565b90506101f682826101b0565b919050565b5f67ffffffffffffffff82111561021557610214610183565b5b602082029050602081019050919050565b5f80fd5b5f819050919050565b61023c8161022a565b8114610246575f80fd5b50565b5f8151905061025781610233565b92915050565b5f61026f61026a846101fb565b6101e1565b9050808382526020820190506020840283018581111561029257610291610226565b5b835b818110156102bb57806102a78882610249565b845260208401935050602081019050610294565b5050509392505050565b5f82601f8301126102d9576102d861016f565b5b81516102e984826020860161025d565b91505092915050565b5f6020828403121561030757610306610167565b5b5f82015167ffffffffffffffff8111156103245761032361016b565b5b610330848285016102c5565b91505092915050565b7f4e487b71000000000000000000000000000000000000000000000000000000005f52603260045260245ffd5b610ab2806103735f395ff3fe608060405234801561000f575f80fd5b506004361061007b575f3560e01c80632e4176cf116100595780632e4176cf146100e85780635c19a95c14610106578063609ff1bd14610122578063e2ba53f0146101405761007b565b80630121b93f1461007f578063013cf08b1461009b5780631eea2fb9146100cc575b5f80fd5b610099600480360381019061009491906107f9565b61015e565b005b6100b560048036038101906100b091906107f9565b61022f565b6040516100c392919061084b565b60405180910390f35b6100e660048036038101906100e191906108cc565b61025e565b005b6100f06103d3565b6040516100fd9190610906565b60405180910390f35b610120600480360381019061011b91906108cc565b6103f6565b005b61012a610717565b604051610137919061091f565b60405180910390f35b610148610792565b6040516101559190610938565b60405180910390f35b5f60015f3373ffffffffffffffffffffffffffffffffffffffff1673ffffffffffffffffffffffffffffffffffffffff1681526020019081526020015f2090508060010160149054906101000a900460ff16156101b9575f80fd5b6001815f015410156101c9575f80fd5b60018160010160146101000a81548160ff021916908315150217905550818160020181905550805f01546002838154811061020757610206610951565b5b905f5260205f2090600202016001015f82825461022491906109ab565b925050819055505050565b6002818154811061023e575f80fd5b905f5260205f2090600202015f91509050805f0154908060010154905082565b5f8054906101000a900473ffffffffffffffffffffffffffffffffffffffff1673ffffffffffffffffffffffffffffffffffffffff163373ffffffffffffffffffffffffffffffffffffffff16146102eb576040517f08c379a00000000000000000000000000000000000000000000000000000000081526004016102e290610a5e565b60405180910390fd5b60015f8273ffffffffffffffffffffffffffffffffffffffff1673ffffffffffffffffffffffffffffffffffffffff1681526020019081526020015f2060010160149054906101000a900460ff1615610342575f80fd5b5f60015f8373ffffffffffffffffffffffffffffffffffffffff1673ffffffffffffffffffffffffffffffffffffffff1681526020019081526020015f205f01541461038c575f80fd5b6001805f8373ffffffffffffffffffffffffffffffffffffffff1673ffffffffffffffffffffffffffffffffffffffff1681526020019081526020015f205f018190555050565b5f8054906101000a900473ffffffffffffffffffffffffffffffffffffffff1681565b5f60015f3373ffffffffffffffffffffffffffffffffffffffff1673ffffffffffffffffffffffffffffffffffffffff1681526020019081526020015f2090508060010160149054906101000a900460ff1615610451575f80fd5b5f815f01540361045f575f80fd5b3373ffffffffffffffffffffffffffffffffffffffff16816001015f9054906101000a900473ffffffffffffffffffffffffffffffffffffffff1673ffffffffffffffffffffffffffffffffffffffff16036104b9575f80fd5b5b5f73ffffffffffffffffffffffffffffffffffffffff1660015f8473ffffffffffffffffffffffffffffffffffffffff1673ffffffffffffffffffffffffffffffffffffffff1681526020019081526020015f206001015f9054906101000a900473ffffffffffffffffffffffffffffffffffffffff1673ffffffffffffffffffffffffffffffffffffffff16146105ea5760015f8373ffffffffffffffffffffffffffffffffffffffff1673ffffffffffffffffffffffffffffffffffffffff1681526020019081526020015f206001015f9054906101000a900473ffffffffffffffffffffffffffffffffffffffff1691503373ffffffffffffffffffffffffffffffffffffffff168273ffffffffffffffffffffffffffffffffffffffff16036105e5575f80fd5b6104ba565b5f60015f8473ffffffffffffffffffffffffffffffffffffffff1673ffffffffffffffffffffffffffffffffffffffff1681526020019081526020015f20905060018260010160146101000a81548160ff02191690831515021790555082826001015f6101000a81548173ffffffffffffffffffffffffffffffffffffffff021916908373ffffffffffffffffffffffffffffffffffffffff1602179055506001815f01541015610699575f80fd5b8060010160149054906101000a900460ff16156106f557815f015460028260020154815481106106cc576106cb610951565b5b905f5260205f2090600202016001015f8282546106e991906109ab565b92505081905550610712565b815f0154815f015f82825461070a91906109ab565b925050819055505b505050565b5f805f90505f5b60028054905081101561078d5781600282815481106107405761073f610951565b5b905f5260205f209060020201600101541115610780578092506002818154811061076d5761076c610951565b5b905f5260205f2090600202016001015491505b808060010191505061071e565b505090565b5f600261079d610717565b815481106107ae576107ad610951565b5b905f5260205f2090600202015f0154905090565b5f80fd5b5f819050919050565b6107d8816107c6565b81146107e2575f80fd5b50565b5f813590506107f3816107cf565b92915050565b5f6020828403121561080e5761080d6107c2565b5b5f61081b848285016107e5565b91505092915050565b5f819050919050565b61083681610824565b82525050565b610845816107c6565b82525050565b5f60408201905061085e5f83018561082d565b61086b602083018461083c565b9392505050565b5f73ffffffffffffffffffffffffffffffffffffffff82169050919050565b5f61089b82610872565b9050919050565b6108ab81610891565b81146108b5575f80fd5b50565b5f813590506108c6816108a2565b92915050565b5f602082840312156108e1576108e06107c2565b5b5f6108ee848285016108b8565b91505092915050565b61090081610891565b82525050565b5f6020820190506109195f8301846108f7565b92915050565b5f6020820190506109325f83018461083c565b92915050565b5f60208201905061094b5f83018461082d565b92915050565b7f4e487b71000000000000000000000000000000000000000000000000000000005f52603260045260245ffd5b7f4e487b71000000000000000000000000000000000000000000000000000000005f52601160045260245ffd5b5f6109b5826107c6565b91506109c0836107c6565b92508282019050808211156109d8576109d761097e565b5b92915050565b5f82825260208201905092915050565b7f6f6e6c79206368616972706572736f6e2063616e2067697665207269677468205f8201527f746f20766f746572000000000000000000000000000000000000000000000000602082015250565b5f610a486028836109de565b9150610a53826109ee565b604082019050919050565b5f6020820190508181035f830152610a7581610a3c565b905091905056fea2646970667358221220a760c4b8d72f7823d4823d78a3ec5decf95965fc3650f06696cb75ba63f3f45464736f6c634300081a0033",
					"opcodes": "PUSH1 0x80 PUSH1 0x40 MSTORE CALLVALUE DUP1 ISZERO PUSH2 0xF JUMPI PUSH0 DUP1 REVERT JUMPDEST POP PUSH1 0x40 MLOAD PUSH2 0xE25 CODESIZE SUB DUP1 PUSH2 0xE25 DUP4 CODECOPY DUP2 DUP2 ADD PUSH1 0x40 MSTORE DUP2 ADD SWAP1 PUSH2 0x31 SWAP2 SWAP1 PUSH2 0x2F2 JUMP JUMPDEST CALLER PUSH0 DUP1 PUSH2 0x100 EXP DUP2 SLOAD DUP2 PUSH20 0xFFFFFFFFFFFFFFFFFFFFFFFFFFFFFFFFFFFFFFFF MUL NOT AND SWAP1 DUP4 PUSH20 0xFFFFFFFFFFFFFFFFFFFFFFFFFFFFFFFFFFFFFFFF AND MUL OR SWAP1 SSTORE POP PUSH1 0x1 DUP1 PUSH0 DUP1 PUSH0 SWAP1 SLOAD SWAP1 PUSH2 0x100 EXP SWAP1 DIV PUSH20 0xFFFFFFFFFFFFFFFFFFFFFFFFFFFFFFFFFFFFFFFF AND PUSH20 0xFFFFFFFFFFFFFFFFFFFFFFFFFFFFFFFFFFFFFFFF AND PUSH20 0xFFFFFFFFFFFFFFFFFFFFFFFFFFFFFFFFFFFFFFFF AND DUP2 MSTORE PUSH1 0x20 ADD SWAP1 DUP2 MSTORE PUSH1 0x20 ADD PUSH0 KECCAK256 PUSH0 ADD DUP2 SWAP1 SSTORE POP PUSH0 JUMPDEST DUP2 MLOAD DUP2 LT ISZERO PUSH2 0x157 JUMPI PUSH1 0x2 PUSH1 0x40 MLOAD DUP1 PUSH1 0x40 ADD PUSH1 0x40 MSTORE DUP1 DUP5 DUP5 DUP2 MLOAD DUP2 LT PUSH2 0xFF JUMPI PUSH2 0xFE PUSH2 0x339 JUMP JUMPDEST JUMPDEST PUSH1 0x20 MUL PUSH1 0x20 ADD ADD MLOAD DUP2 MSTORE PUSH1 0x20 ADD PUSH0 DUP2 MSTORE POP SWAP1 DUP1 PUSH1 0x1 DUP2 SLOAD ADD DUP1 DUP3 SSTORE DUP1 SWAP2 POP POP PUSH1 0x1 SWAP1 SUB SWAP1 PUSH0 MSTORE PUSH1 0x20 PUSH0 KECCAK256 SWAP1 PUSH1 0x2 MUL ADD PUSH0 SWAP1 SWAP2 SWAP1 SWAP2 SWAP1 SWAP2 POP PUSH0 DUP3 ADD MLOAD DUP2 PUSH0 ADD SSTORE PUSH1 0x20 DUP3 ADD MLOAD DUP2 PUSH1 0x1 ADD SSTORE POP POP DUP1 DUP1 PUSH1 0x1 ADD SWAP2 POP POP PUSH2 0xD6 JUMP JUMPDEST POP POP PUSH2 0x366 JUMP JUMPDEST PUSH0 PUSH1 0x40 MLOAD SWAP1 POP SWAP1 JUMP JUMPDEST PUSH0 DUP1 REVERT JUMPDEST PUSH0 DUP1 REVERT JUMPDEST PUSH0 DUP1 REVERT JUMPDEST PUSH0 PUSH1 0x1F NOT PUSH1 0x1F DUP4 ADD AND SWAP1 POP SWAP2 SWAP1 POP JUMP JUMPDEST PUSH32 0x4E487B7100000000000000000000000000000000000000000000000000000000 PUSH0 MSTORE PUSH1 0x41 PUSH1 0x4 MSTORE PUSH1 0x24 PUSH0 REVERT JUMPDEST PUSH2 0x1B9 DUP3 PUSH2 0x173 JUMP JUMPDEST DUP2 ADD DUP2 DUP2 LT PUSH8 0xFFFFFFFFFFFFFFFF DUP3 GT OR ISZERO PUSH2 0x1D8 JUMPI PUSH2 0x1D7 PUSH2 0x183 JUMP JUMPDEST JUMPDEST DUP1 PUSH1 0x40 MSTORE POP POP POP JUMP JUMPDEST PUSH0 PUSH2 0x1EA PUSH2 0x15E JUMP JUMPDEST SWAP1 POP PUSH2 0x1F6 DUP3 DUP3 PUSH2 0x1B0 JUMP JUMPDEST SWAP2 SWAP1 POP JUMP JUMPDEST PUSH0 PUSH8 0xFFFFFFFFFFFFFFFF DUP3 GT ISZERO PUSH2 0x215 JUMPI PUSH2 0x214 PUSH2 0x183 JUMP JUMPDEST JUMPDEST PUSH1 0x20 DUP3 MUL SWAP1 POP PUSH1 0x20 DUP2 ADD SWAP1 POP SWAP2 SWAP1 POP JUMP JUMPDEST PUSH0 DUP1 REVERT JUMPDEST PUSH0 DUP2 SWAP1 POP SWAP2 SWAP1 POP JUMP JUMPDEST PUSH2 0x23C DUP2 PUSH2 0x22A JUMP JUMPDEST DUP2 EQ PUSH2 0x246 JUMPI PUSH0 DUP1 REVERT JUMPDEST POP JUMP JUMPDEST PUSH0 DUP2 MLOAD SWAP1 POP PUSH2 0x257 DUP2 PUSH2 0x233 JUMP JUMPDEST SWAP3 SWAP2 POP POP JUMP JUMPDEST PUSH0 PUSH2 0x26F PUSH2 0x26A DUP5 PUSH2 0x1FB JUMP JUMPDEST PUSH2 0x1E1 JUMP JUMPDEST SWAP1 POP DUP1 DUP4 DUP3 MSTORE PUSH1 0x20 DUP3 ADD SWAP1 POP PUSH1 0x20 DUP5 MUL DUP4 ADD DUP6 DUP2 GT ISZERO PUSH2 0x292 JUMPI PUSH2 0x291 PUSH2 0x226 JUMP JUMPDEST JUMPDEST DUP4 JUMPDEST DUP2 DUP2 LT ISZERO PUSH2 0x2BB JUMPI DUP1 PUSH2 0x2A7 DUP9 DUP3 PUSH2 0x249 JUMP JUMPDEST DUP5 MSTORE PUSH1 0x20 DUP5 ADD SWAP4 POP POP PUSH1 0x20 DUP2 ADD SWAP1 POP PUSH2 0x294 JUMP JUMPDEST POP POP POP SWAP4 SWAP3 POP POP POP JUMP JUMPDEST PUSH0 DUP3 PUSH1 0x1F DUP4 ADD SLT PUSH2 0x2D9 JUMPI PUSH2 0x2D8 PUSH2 0x16F JUMP JUMPDEST JUMPDEST DUP2 MLOAD PUSH2 0x2E9 DUP5 DUP3 PUSH1 0x20 DUP7 ADD PUSH2 0x25D JUMP JUMPDEST SWAP2 POP POP SWAP3 SWAP2 POP POP JUMP JUMPDEST PUSH0 PUSH1 0x20 DUP3 DUP5 SUB SLT ISZERO PUSH2 0x307 JUMPI PUSH2 0x306 PUSH2 0x167 JUMP JUMPDEST JUMPDEST PUSH0 DUP3 ADD MLOAD PUSH8 0xFFFFFFFFFFFFFFFF DUP2 GT ISZERO PUSH2 0x324 JUMPI PUSH2 0x323 PUSH2 0x16B JUMP JUMPDEST JUMPDEST PUSH2 0x330 DUP5 DUP3 DUP6 ADD PUSH2 0x2C5 JUMP JUMPDEST SWAP2 POP POP SWAP3 SWAP2 POP POP JUMP JUMPDEST PUSH32 0x4E487B7100000000000000000000000000000000000000000000000000000000 PUSH0 MSTORE PUSH1 0x32 PUSH1 0x4 MSTORE PUSH1 0x24 PUSH0 REVERT JUMPDEST PUSH2 0xAB2 DUP1 PUSH2 0x373 PUSH0 CODECOPY PUSH0 RETURN INVALID PUSH1 0x80 PUSH1 0x40 MSTORE CALLVALUE DUP1 ISZERO PUSH2 0xF JUMPI PUSH0 DUP1 REVERT JUMPDEST POP PUSH1 0x4 CALLDATASIZE LT PUSH2 0x7B JUMPI PUSH0 CALLDATALOAD PUSH1 0xE0 SHR DUP1 PUSH4 0x2E4176CF GT PUSH2 0x59 JUMPI DUP1 PUSH4 0x2E4176CF EQ PUSH2 0xE8 JUMPI DUP1 PUSH4 0x5C19A95C EQ PUSH2 0x106 JUMPI DUP1 PUSH4 0x609FF1BD EQ PUSH2 0x122 JUMPI DUP1 PUSH4 0xE2BA53F0 EQ PUSH2 0x140 JUMPI PUSH2 0x7B JUMP JUMPDEST DUP1 PUSH4 0x121B93F EQ PUSH2 0x7F JUMPI DUP1 PUSH4 0x13CF08B EQ PUSH2 0x9B JUMPI DUP1 PUSH4 0x1EEA2FB9 EQ PUSH2 0xCC JUMPI JUMPDEST PUSH0 DUP1 REVERT JUMPDEST PUSH2 0x99 PUSH1 0x4 DUP1 CALLDATASIZE SUB DUP2 ADD SWAP1 PUSH2 0x94 SWAP2 SWAP1 PUSH2 0x7F9 JUMP JUMPDEST PUSH2 0x15E JUMP JUMPDEST STOP JUMPDEST PUSH2 0xB5 PUSH1 0x4 DUP1 CALLDATASIZE SUB DUP2 ADD SWAP1 PUSH2 0xB0 SWAP2 SWAP1 PUSH2 0x7F9 JUMP JUMPDEST PUSH2 0x22F JUMP JUMPDEST PUSH1 0x40 MLOAD PUSH2 0xC3 SWAP3 SWAP2 SWAP1 PUSH2 0x84B JUMP JUMPDEST PUSH1 0x40 MLOAD DUP1 SWAP2 SUB SWAP1 RETURN JUMPDEST PUSH2 0xE6 PUSH1 0x4 DUP1 CALLDATASIZE SUB DUP2 ADD SWAP1 PUSH2 0xE1 SWAP2 SWAP1 PUSH2 0x8CC JUMP JUMPDEST PUSH2 0x25E JUMP JUMPDEST STOP JUMPDEST PUSH2 0xF0 PUSH2 0x3D3 JUMP JUMPDEST PUSH1 0x40 MLOAD PUSH2 0xFD SWAP2 SWAP1 PUSH2 0x906 JUMP JUMPDEST PUSH1 0x40 MLOAD DUP1 SWAP2 SUB SWAP1 RETURN JUMPDEST PUSH2 0x120 PUSH1 0x4 DUP1 CALLDATASIZE SUB DUP2 ADD SWAP1 PUSH2 0x11B SWAP2 SWAP1 PUSH2 0x8CC JUMP JUMPDEST PUSH2 0x3F6 JUMP JUMPDEST STOP JUMPDEST PUSH2 0x12A PUSH2 0x717 JUMP JUMPDEST PUSH1 0x40 MLOAD PUSH2 0x137 SWAP2 SWAP1 PUSH2 0x91F JUMP JUMPDEST PUSH1 0x40 MLOAD DUP1 SWAP2 SUB SWAP1 RETURN JUMPDEST PUSH2 0x148 PUSH2 0x792 JUMP JUMPDEST PUSH1 0x40 MLOAD PUSH2 0x155 SWAP2 SWAP1 PUSH2 0x938 JUMP JUMPDEST PUSH1 0x40 MLOAD DUP1 SWAP2 SUB SWAP1 RETURN JUMPDEST PUSH0 PUSH1 0x1 PUSH0 CALLER PUSH20 0xFFFFFFFFFFFFFFFFFFFFFFFFFFFFFFFFFFFFFFFF AND PUSH20 0xFFFFFFFFFFFFFFFFFFFFFFFFFFFFFFFFFFFFFFFF AND DUP2 MSTORE PUSH1 0x20 ADD SWAP1 DUP2 MSTORE PUSH1 0x20 ADD PUSH0 KECCAK256 SWAP1 POP DUP1 PUSH1 0x1 ADD PUSH1 0x14 SWAP1 SLOAD SWAP1 PUSH2 0x100 EXP SWAP1 DIV PUSH1 0xFF AND ISZERO PUSH2 0x1B9 JUMPI PUSH0 DUP1 REVERT JUMPDEST PUSH1 0x1 DUP2 PUSH0 ADD SLOAD LT ISZERO PUSH2 0x1C9 JUMPI PUSH0 DUP1 REVERT JUMPDEST PUSH1 0x1 DUP2 PUSH1 0x1 ADD PUSH1 0x14 PUSH2 0x100 EXP DUP2 SLOAD DUP2 PUSH1 0xFF MUL NOT AND SWAP1 DUP4 ISZERO ISZERO MUL OR SWAP1 SSTORE POP DUP2 DUP2 PUSH1 0x2 ADD DUP2 SWAP1 SSTORE POP DUP1 PUSH0 ADD SLOAD PUSH1 0x2 DUP4 DUP2 SLOAD DUP2 LT PUSH2 0x207 JUMPI PUSH2 0x206 PUSH2 0x951 JUMP JUMPDEST JUMPDEST SWAP1 PUSH0 MSTORE PUSH1 0x20 PUSH0 KECCAK256 SWAP1 PUSH1 0x2 MUL ADD PUSH1 0x1 ADD PUSH0 DUP3 DUP3 SLOAD PUSH2 0x224 SWAP2 SWAP1 PUSH2 0x9AB JUMP JUMPDEST SWAP3 POP POP DUP2 SWAP1 SSTORE POP POP POP JUMP JUMPDEST PUSH1 0x2 DUP2 DUP2 SLOAD DUP2 LT PUSH2 0x23E JUMPI PUSH0 DUP1 REVERT JUMPDEST SWAP1 PUSH0 MSTORE PUSH1 0x20 PUSH0 KECCAK256 SWAP1 PUSH1 0x2 MUL ADD PUSH0 SWAP2 POP SWAP1 POP DUP1 PUSH0 ADD SLOAD SWAP1 DUP1 PUSH1 0x1 ADD SLOAD SWAP1 POP DUP3 JUMP JUMPDEST PUSH0 DUP1 SLOAD SWAP1 PUSH2 0x100 EXP SWAP1 DIV PUSH20 0xFFFFFFFFFFFFFFFFFFFFFFFFFFFFFFFFFFFFFFFF AND PUSH20 0xFFFFFFFFFFFFFFFFFFFFFFFFFFFFFFFFFFFFFFFF AND CALLER PUSH20 0xFFFFFFFFFFFFFFFFFFFFFFFFFFFFFFFFFFFFFFFF AND EQ PUSH2 0x2EB JUMPI PUSH1 0x40 MLOAD PUSH32 0x8C379A000000000000000000000000000000000000000000000000000000000 DUP2 MSTORE PUSH1 0x4 ADD PUSH2 0x2E2 SWAP1 PUSH2 0xA5E JUMP JUMPDEST PUSH1 0x40 MLOAD DUP1 SWAP2 SUB SWAP1 REVERT JUMPDEST PUSH1 0x1 PUSH0 DUP3 PUSH20 0xFFFFFFFFFFFFFFFFFFFFFFFFFFFFFFFFFFFFFFFF AND PUSH20 0xFFFFFFFFFFFFFFFFFFFFFFFFFFFFFFFFFFFFFFFF AND DUP2 MSTORE PUSH1 0x20 ADD SWAP1 DUP2 MSTORE PUSH1 0x20 ADD PUSH0 KECCAK256 PUSH1 0x1 ADD PUSH1 0x14 SWAP1 SLOAD SWAP1 PUSH2 0x100 EXP SWAP1 DIV PUSH1 0xFF AND ISZERO PUSH2 0x342 JUMPI PUSH0 DUP1 REVERT JUMPDEST PUSH0 PUSH1 0x1 PUSH0 DUP4 PUSH20 0xFFFFFFFFFFFFFFFFFFFFFFFFFFFFFFFFFFFFFFFF AND PUSH20 0xFFFFFFFFFFFFFFFFFFFFFFFFFFFFFFFFFFFFFFFF AND DUP2 MSTORE PUSH1 0x20 ADD SWAP1 DUP2 MSTORE PUSH1 0x20 ADD PUSH0 KECCAK256 PUSH0 ADD SLOAD EQ PUSH2 0x38C JUMPI PUSH0 DUP1 REVERT JUMPDEST PUSH1 0x1 DUP1 PUSH0 DUP4 PUSH20 0xFFFFFFFFFFFFFFFFFFFFFFFFFFFFFFFFFFFFFFFF AND PUSH20 0xFFFFFFFFFFFFFFFFFFFFFFFFFFFFFFFFFFFFFFFF AND DUP2 MSTORE PUSH1 0x20 ADD SWAP1 DUP2 MSTORE PUSH1 0x20 ADD PUSH0 KECCAK256 PUSH0 ADD DUP2 SWAP1 SSTORE POP POP JUMP JUMPDEST PUSH0 DUP1 SLOAD SWAP1 PUSH2 0x100 EXP SWAP1 DIV PUSH20 0xFFFFFFFFFFFFFFFFFFFFFFFFFFFFFFFFFFFFFFFF AND DUP2 JUMP JUMPDEST PUSH0 PUSH1 0x1 PUSH0 CALLER PUSH20 0xFFFFFFFFFFFFFFFFFFFFFFFFFFFFFFFFFFFFFFFF AND PUSH20 0xFFFFFFFFFFFFFFFFFFFFFFFFFFFFFFFFFFFFFFFF AND DUP2 MSTORE PUSH1 0x20 ADD SWAP1 DUP2 MSTORE PUSH1 0x20 ADD PUSH0 KECCAK256 SWAP1 POP DUP1 PUSH1 0x1 ADD PUSH1 0x14 SWAP1 SLOAD SWAP1 PUSH2 0x100 EXP SWAP1 DIV PUSH1 0xFF AND ISZERO PUSH2 0x451 JUMPI PUSH0 DUP1 REVERT JUMPDEST PUSH0 DUP2 PUSH0 ADD SLOAD SUB PUSH2 0x45F JUMPI PUSH0 DUP1 REVERT JUMPDEST CALLER PUSH20 0xFFFFFFFFFFFFFFFFFFFFFFFFFFFFFFFFFFFFFFFF AND DUP2 PUSH1 0x1 ADD PUSH0 SWAP1 SLOAD SWAP1 PUSH2 0x100 EXP SWAP1 DIV PUSH20 0xFFFFFFFFFFFFFFFFFFFFFFFFFFFFFFFFFFFFFFFF AND PUSH20 0xFFFFFFFFFFFFFFFFFFFFFFFFFFFFFFFFFFFFFFFF AND SUB PUSH2 0x4B9 JUMPI PUSH0 DUP1 REVERT JUMPDEST JUMPDEST PUSH0 PUSH20 0xFFFFFFFFFFFFFFFFFFFFFFFFFFFFFFFFFFFFFFFF AND PUSH1 0x1 PUSH0 DUP5 PUSH20 0xFFFFFFFFFFFFFFFFFFFFFFFFFFFFFFFFFFFFFFFF AND PUSH20 0xFFFFFFFFFFFFFFFFFFFFFFFFFFFFFFFFFFFFFFFF AND DUP2 MSTORE PUSH1 0x20 ADD SWAP1 DUP2 MSTORE PUSH1 0x20 ADD PUSH0 KECCAK256 PUSH1 0x1 ADD PUSH0 SWAP1 SLOAD SWAP1 PUSH2 0x100 EXP SWAP1 DIV PUSH20 0xFFFFFFFFFFFFFFFFFFFFFFFFFFFFFFFFFFFFFFFF AND PUSH20 0xFFFFFFFFFFFFFFFFFFFFFFFFFFFFFFFFFFFFFFFF AND EQ PUSH2 0x5EA JUMPI PUSH1 0x1 PUSH0 DUP4 PUSH20 0xFFFFFFFFFFFFFFFFFFFFFFFFFFFFFFFFFFFFFFFF AND PUSH20 0xFFFFFFFFFFFFFFFFFFFFFFFFFFFFFFFFFFFFFFFF AND DUP2 MSTORE PUSH1 0x20 ADD SWAP1 DUP2 MSTORE PUSH1 0x20 ADD PUSH0 KECCAK256 PUSH1 0x1 ADD PUSH0 SWAP1 SLOAD SWAP1 PUSH2 0x100 EXP SWAP1 DIV PUSH20 0xFFFFFFFFFFFFFFFFFFFFFFFFFFFFFFFFFFFFFFFF AND SWAP2 POP CALLER PUSH20 0xFFFFFFFFFFFFFFFFFFFFFFFFFFFFFFFFFFFFFFFF AND DUP3 PUSH20 0xFFFFFFFFFFFFFFFFFFFFFFFFFFFFFFFFFFFFFFFF AND SUB PUSH2 0x5E5 JUMPI PUSH0 DUP1 REVERT JUMPDEST PUSH2 0x4BA JUMP JUMPDEST PUSH0 PUSH1 0x1 PUSH0 DUP5 PUSH20 0xFFFFFFFFFFFFFFFFFFFFFFFFFFFFFFFFFFFFFFFF AND PUSH20 0xFFFFFFFFFFFFFFFFFFFFFFFFFFFFFFFFFFFFFFFF AND DUP2 MSTORE PUSH1 0x20 ADD SWAP1 DUP2 MSTORE PUSH1 0x20 ADD PUSH0 KECCAK256 SWAP1 POP PUSH1 0x1 DUP3 PUSH1 0x1 ADD PUSH1 0x14 PUSH2 0x100 EXP DUP2 SLOAD DUP2 PUSH1 0xFF MUL NOT AND SWAP1 DUP4 ISZERO ISZERO MUL OR SWAP1 SSTORE POP DUP3 DUP3 PUSH1 0x1 ADD PUSH0 PUSH2 0x100 EXP DUP2 SLOAD DUP2 PUSH20 0xFFFFFFFFFFFFFFFFFFFFFFFFFFFFFFFFFFFFFFFF MUL NOT AND SWAP1 DUP4 PUSH20 0xFFFFFFFFFFFFFFFFFFFFFFFFFFFFFFFFFFFFFFFF AND MUL OR SWAP1 SSTORE POP PUSH1 0x1 DUP2 PUSH0 ADD SLOAD LT ISZERO PUSH2 0x699 JUMPI PUSH0 DUP1 REVERT JUMPDEST DUP1 PUSH1 0x1 ADD PUSH1 0x14 SWAP1 SLOAD SWAP1 PUSH2 0x100 EXP SWAP1 DIV PUSH1 0xFF AND ISZERO PUSH2 0x6F5 JUMPI DUP2 PUSH0 ADD SLOAD PUSH1 0x2 DUP3 PUSH1 0x2 ADD SLOAD DUP2 SLOAD DUP2 LT PUSH2 0x6CC JUMPI PUSH2 0x6CB PUSH2 0x951 JUMP JUMPDEST JUMPDEST SWAP1 PUSH0 MSTORE PUSH1 0x20 PUSH0 KECCAK256 SWAP1 PUSH1 0x2 MUL ADD PUSH1 0x1 ADD PUSH0 DUP3 DUP3 SLOAD PUSH2 0x6E9 SWAP2 SWAP1 PUSH2 0x9AB JUMP JUMPDEST SWAP3 POP POP DUP2 SWAP1 SSTORE POP PUSH2 0x712 JUMP JUMPDEST DUP2 PUSH0 ADD SLOAD DUP2 PUSH0 ADD PUSH0 DUP3 DUP3 SLOAD PUSH2 0x70A SWAP2 SWAP1 PUSH2 0x9AB JUMP JUMPDEST SWAP3 POP POP DUP2 SWAP1 SSTORE POP JUMPDEST POP POP POP JUMP JUMPDEST PUSH0 DUP1 PUSH0 SWAP1 POP PUSH0 JUMPDEST PUSH1 0x2 DUP1 SLOAD SWAP1 POP DUP2 LT ISZERO PUSH2 0x78D JUMPI DUP2 PUSH1 0x2 DUP3 DUP2 SLOAD DUP2 LT PUSH2 0x740 JUMPI PUSH2 0x73F PUSH2 0x951 JUMP JUMPDEST JUMPDEST SWAP1 PUSH0 MSTORE PUSH1 0x20 PUSH0 KECCAK256 SWAP1 PUSH1 0x2 MUL ADD PUSH1 0x1 ADD SLOAD GT ISZERO PUSH2 0x780 JUMPI DUP1 SWAP3 POP PUSH1 0x2 DUP2 DUP2 SLOAD DUP2 LT PUSH2 0x76D JUMPI PUSH2 0x76C PUSH2 0x951 JUMP JUMPDEST JUMPDEST SWAP1 PUSH0 MSTORE PUSH1 0x20 PUSH0 KECCAK256 SWAP1 PUSH1 0x2 MUL ADD PUSH1 0x1 ADD SLOAD SWAP2 POP JUMPDEST DUP1 DUP1 PUSH1 0x1 ADD SWAP2 POP POP PUSH2 0x71E JUMP JUMPDEST POP POP SWAP1 JUMP JUMPDEST PUSH0 PUSH1 0x2 PUSH2 0x79D PUSH2 0x717 JUMP JUMPDEST DUP2 SLOAD DUP2 LT PUSH2 0x7AE JUMPI PUSH2 0x7AD PUSH2 0x951 JUMP JUMPDEST JUMPDEST SWAP1 PUSH0 MSTORE PUSH1 0x20 PUSH0 KECCAK256 SWAP1 PUSH1 0x2 MUL ADD PUSH0 ADD SLOAD SWAP1 POP SWAP1 JUMP JUMPDEST PUSH0 DUP1 REVERT JUMPDEST PUSH0 DUP2 SWAP1 POP SWAP2 SWAP1 POP JUMP JUMPDEST PUSH2 0x7D8 DUP2 PUSH2 0x7C6 JUMP JUMPDEST DUP2 EQ PUSH2 0x7E2 JUMPI PUSH0 DUP1 REVERT JUMPDEST POP JUMP JUMPDEST PUSH0 DUP2 CALLDATALOAD SWAP1 POP PUSH2 0x7F3 DUP2 PUSH2 0x7CF JUMP JUMPDEST SWAP3 SWAP2 POP POP JUMP JUMPDEST PUSH0 PUSH1 0x20 DUP3 DUP5 SUB SLT ISZERO PUSH2 0x80E JUMPI PUSH2 0x80D PUSH2 0x7C2 JUMP JUMPDEST JUMPDEST PUSH0 PUSH2 0x81B DUP5 DUP3 DUP6 ADD PUSH2 0x7E5 JUMP JUMPDEST SWAP2 POP POP SWAP3 SWAP2 POP POP JUMP JUMPDEST PUSH0 DUP2 SWAP1 POP SWAP2 SWAP1 POP JUMP JUMPDEST PUSH2 0x836 DUP2 PUSH2 0x824 JUMP JUMPDEST DUP3 MSTORE POP POP JUMP JUMPDEST PUSH2 0x845 DUP2 PUSH2 0x7C6 JUMP JUMPDEST DUP3 MSTORE POP POP JUMP JUMPDEST PUSH0 PUSH1 0x40 DUP3 ADD SWAP1 POP PUSH2 0x85E PUSH0 DUP4 ADD DUP6 PUSH2 0x82D JUMP JUMPDEST PUSH2 0x86B PUSH1 0x20 DUP4 ADD DUP5 PUSH2 0x83C JUMP JUMPDEST SWAP4 SWAP3 POP POP POP JUMP JUMPDEST PUSH0 PUSH20 0xFFFFFFFFFFFFFFFFFFFFFFFFFFFFFFFFFFFFFFFF DUP3 AND SWAP1 POP SWAP2 SWAP1 POP JUMP JUMPDEST PUSH0 PUSH2 0x89B DUP3 PUSH2 0x872 JUMP JUMPDEST SWAP1 POP SWAP2 SWAP1 POP JUMP JUMPDEST PUSH2 0x8AB DUP2 PUSH2 0x891 JUMP JUMPDEST DUP2 EQ PUSH2 0x8B5 JUMPI PUSH0 DUP1 REVERT JUMPDEST POP JUMP JUMPDEST PUSH0 DUP2 CALLDATALOAD SWAP1 POP PUSH2 0x8C6 DUP2 PUSH2 0x8A2 JUMP JUMPDEST SWAP3 SWAP2 POP POP JUMP JUMPDEST PUSH0 PUSH1 0x20 DUP3 DUP5 SUB SLT ISZERO PUSH2 0x8E1 JUMPI PUSH2 0x8E0 PUSH2 0x7C2 JUMP JUMPDEST JUMPDEST PUSH0 PUSH2 0x8EE DUP5 DUP3 DUP6 ADD PUSH2 0x8B8 JUMP JUMPDEST SWAP2 POP POP SWAP3 SWAP2 POP POP JUMP JUMPDEST PUSH2 0x900 DUP2 PUSH2 0x891 JUMP JUMPDEST DUP3 MSTORE POP POP JUMP JUMPDEST PUSH0 PUSH1 0x20 DUP3 ADD SWAP1 POP PUSH2 0x919 PUSH0 DUP4 ADD DUP5 PUSH2 0x8F7 JUMP JUMPDEST SWAP3 SWAP2 POP POP JUMP JUMPDEST PUSH0 PUSH1 0x20 DUP3 ADD SWAP1 POP PUSH2 0x932 PUSH0 DUP4 ADD DUP5 PUSH2 0x83C JUMP JUMPDEST SWAP3 SWAP2 POP POP JUMP JUMPDEST PUSH0 PUSH1 0x20 DUP3 ADD SWAP1 POP PUSH2 0x94B PUSH0 DUP4 ADD DUP5 PUSH2 0x82D JUMP JUMPDEST SWAP3 SWAP2 POP POP JUMP JUMPDEST PUSH32 0x4E487B7100000000000000000000000000000000000000000000000000000000 PUSH0 MSTORE PUSH1 0x32 PUSH1 0x4 MSTORE PUSH1 0x24 PUSH0 REVERT JUMPDEST PUSH32 0x4E487B7100000000000000000000000000000000000000000000000000000000 PUSH0 MSTORE PUSH1 0x11 PUSH1 0x4 MSTORE PUSH1 0x24 PUSH0 REVERT JUMPDEST PUSH0 PUSH2 0x9B5 DUP3 PUSH2 0x7C6 JUMP JUMPDEST SWAP2 POP PUSH2 0x9C0 DUP4 PUSH2 0x7C6 JUMP JUMPDEST SWAP3 POP DUP3 DUP3 ADD SWAP1 POP DUP1 DUP3 GT ISZERO PUSH2 0x9D8 JUMPI PUSH2 0x9D7 PUSH2 0x97E JUMP JUMPDEST JUMPDEST SWAP3 SWAP2 POP POP JUMP JUMPDEST PUSH0 DUP3 DUP3 MSTORE PUSH1 0x20 DUP3 ADD SWAP1 POP SWAP3 SWAP2 POP POP JUMP JUMPDEST PUSH32 0x6F6E6C79206368616972706572736F6E2063616E206769766520726967746820 PUSH0 DUP3 ADD MSTORE PUSH32 0x746F20766F746572000000000000000000000000000000000000000000000000 PUSH1 0x20 DUP3 ADD MSTORE POP JUMP JUMPDEST PUSH0 PUSH2 0xA48 PUSH1 0x28 DUP4 PUSH2 0x9DE JUMP JUMPDEST SWAP2 POP PUSH2 0xA53 DUP3 PUSH2 0x9EE JUMP JUMPDEST PUSH1 0x40 DUP3 ADD SWAP1 POP SWAP2 SWAP1 POP JUMP JUMPDEST PUSH0 PUSH1 0x20 DUP3 ADD SWAP1 POP DUP2 DUP2 SUB PUSH0 DUP4 ADD MSTORE PUSH2 0xA75 DUP2 PUSH2 0xA3C JUMP JUMPDEST SWAP1 POP SWAP2 SWAP1 POP JUMP INVALID LOG2 PUSH5 0x6970667358 0x22 SLT KECCAK256 0xA7 PUSH1 0xC4 0xB8 0xD7 0x2F PUSH25 0x23D4823D78A3EC5DECF95965FC3650F06696CB75BA63F3F454 PUSH5 0x736F6C6343 STOP ADDMOD BYTE STOP CALLER "
				},
				"gasEstimates": {
					"creation": {
						"codeDepositCost": "547600",
						"executionCost": "infinite",
						"totalCost": "infinite"
					},
					"external": {
						"chairperson()": "2505",
						"delegate(address)": "infinite",
						"giveRightToVoter(address)": "29382",
						"proposals(uint256)": "infinite",
						"vote(uint256)": "infinite",
						"winnerName()": "infinite",
						"winningProposal()": "infinite"
					}
				},
				"methodIdentifiers": {
					"chairperson()": "2e4176cf",
					"delegate(address)": "5c19a95c",
					"giveRightToVoter(address)": "1eea2fb9",
					"proposals(uint256)": "013cf08b",
					"vote(uint256)": "0121b93f",
					"winnerName()": "e2ba53f0",
					"winningProposal()": "609ff1bd"
				}
			},
			"storageLayout": {
				"storage": [
					{
						"astId": 17,
						"contract": "contracts/Ballot.sol:Ballot",
						"label": "chairperson",
						"offset": 0,
						"slot": "0",
						"type": "t_address"
					},
					{
						"astId": 22,
						"contract": "contracts/Ballot.sol:Ballot",
						"label": "voters",
						"offset": 0,
						"slot": "1",
						"type": "t_mapping(t_address,t_struct(Voter)10_storage)"
					},
					{
						"astId": 26,
						"contract": "contracts/Ballot.sol:Ballot",
						"label": "proposals",
						"offset": 0,
						"slot": "2",
						"type": "t_array(t_struct(Proposal)15_storage)dyn_storage"
					}
				],
				"types": {
					"t_address": {
						"encoding": "inplace",
						"label": "address",
						"numberOfBytes": "20"
					},
					"t_array(t_struct(Proposal)15_storage)dyn_storage": {
						"base": "t_struct(Proposal)15_storage",
						"encoding": "dynamic_array",
						"label": "struct Ballot.Proposal[]",
						"numberOfBytes": "32"
					},
					"t_bool": {
						"encoding": "inplace",
						"label": "bool",
						"numberOfBytes": "1"
					},
					"t_bytes32": {
						"encoding": "inplace",
						"label": "bytes32",
						"numberOfBytes": "32"
					},
					"t_mapping(t_address,t_struct(Voter)10_storage)": {
						"encoding": "mapping",
						"key": "t_address",
						"label": "mapping(address => struct Ballot.Voter)",
						"numberOfBytes": "32",
						"value": "t_struct(Voter)10_storage"
					},
					"t_struct(Proposal)15_storage": {
						"encoding": "inplace",
						"label": "struct Ballot.Proposal",
						"members": [
							{
								"astId": 12,
								"contract": "contracts/Ballot.sol:Ballot",
								"label": "name",
								"offset": 0,
								"slot": "0",
								"type": "t_bytes32"
							},
							{
								"astId": 14,
								"contract": "contracts/Ballot.sol:Ballot",
								"label": "num",
								"offset": 0,
								"slot": "1",
								"type": "t_uint256"
							}
						],
						"numberOfBytes": "64"
					},
					"t_struct(Voter)10_storage": {
						"encoding": "inplace",
						"label": "struct Ballot.Voter",
						"members": [
							{
								"astId": 3,
								"contract": "contracts/Ballot.sol:Ballot",
								"label": "weight",
								"offset": 0,
								"slot": "0",
								"type": "t_uint256"
							},
							{
								"astId": 5,
								"contract": "contracts/Ballot.sol:Ballot",
								"label": "delegate",
								"offset": 0,
								"slot": "1",
								"type": "t_address"
							},
							{
								"astId": 7,
								"contract": "contracts/Ballot.sol:Ballot",
								"label": "voted",
								"offset": 20,
								"slot": "1",
								"type": "t_bool"
							},
							{
								"astId": 9,
								"contract": "contracts/Ballot.sol:Ballot",
								"label": "index",
								"offset": 0,
								"slot": "2",
								"type": "t_uint256"
							}
						],
						"numberOfBytes": "96"
					},
					"t_uint256": {
						"encoding": "inplace",
						"label": "uint256",
						"numberOfBytes": "32"
					}
				}
			},
			"userdoc": {
				"kind": "user",
				"methods": {},
				"version": 1
			}
		}
	}
}